{"contracts/Voting.sol":{"Poll":{"abi":[{"inputs":[{"internalType":"string","name":"_question","type":"string"},{"internalType":"string[]","name":"_options","type":"string[]"},{"internalType":"uint256","name":"_timelock","type":"uint256"}],"stateMutability":"nonpayable","type":"constructor"},{"anonymous":false,"inputs":[{"indexed":false,"internalType":"string","name":"winner","type":"string"}],"name":"PollEnded","type":"event"},{"anonymous":false,"inputs":[],"name":"PollPaused","type":"event"},{"anonymous":false,"inputs":[],"name":"PollUnpaused","type":"event"},{"anonymous":false,"inputs":[{"indexed":false,"internalType":"address","name":"voter","type":"address"},{"indexed":false,"internalType":"string","name":"option","type":"string"}],"name":"VoteCast","type":"event"},{"inputs":[],"name":"changePauseState","outputs":[],"stateMutability":"nonpayable","type":"function"},{"inputs":[],"name":"getOptions","outputs":[{"internalType":"string[]","name":"","type":"string[]"}],"stateMutability":"view","type":"function"},{"inputs":[],"name":"getQuestion","outputs":[{"internalType":"string","name":"","type":"string"}],"stateMutability":"view","type":"function"},{"inputs":[],"name":"getTotalOptions","outputs":[{"internalType":"uint256","name":"","type":"uint256"}],"stateMutability":"view","type":"function"},{"inputs":[],"name":"getTotalVotes","outputs":[{"internalType":"uint256","name":"","type":"uint256"}],"stateMutability":"view","type":"function"},{"inputs":[{"internalType":"string","name":"_option","type":"string"}],"name":"getVotes","outputs":[{"internalType":"uint256","name":"","type":"uint256"}],"stateMutability":"view","type":"function"},{"inputs":[],"name":"getWinner","outputs":[{"internalType":"string","name":"","type":"string"}],"stateMutability":"view","type":"function"},{"inputs":[{"internalType":"string","name":"_option","type":"string"}],"name":"vote","outputs":[{"internalType":"bool","name":"","type":"bool"}],"stateMutability":"nonpayable","type":"function"}],"evm":{"bytecode":{"linkReferences":{},"object":"608060405260008060146101000a81548160ff0219169083151502179055503480156200002b57600080fd5b50604051620020b7380380620020b7833981810160405281019062000051919062000564565b60208251111562000099576040517f08c379a0000000000000000000000000000000000000000000000000000000008152600401620000909062000685565b60405180910390fd5b336000806101000a81548173ffffffffffffffffffffffffffffffffffffffff021916908373ffffffffffffffffffffffffffffffffffffffff1602179055508160029080519060200190620000f1929190620001ad565b508260019081620001039190620008e8565b5060008114620001225780426200011b9190620009fe565b6006819055505b815160048190555060005b8251811015620001a3576001600984838151811062000151576200015062000a39565b5b602002602001015160405162000168919062000aaa565b908152602001604051809103902060006101000a81548160ff02191690831515021790555080806200019a9062000ac3565b9150506200012d565b5050505062000b10565b828054828255906000526020600020908101928215620001fa579160200282015b82811115620001f9578251829081620001e89190620008e8565b5091602001919060010190620001ce565b5b5090506200020991906200020d565b5090565b5b8082111562000231576000818162000227919062000235565b506001016200020e565b5090565b5080546200024390620006e1565b6000825580601f1062000257575062000278565b601f0160209004906000526020600020908101906200027791906200027b565b5b50565b5b80821115620002965760008160009055506001016200027c565b5090565b6000604051905090565b600080fd5b600080fd5b600080fd5b600080fd5b6000601f19601f8301169050919050565b7f4e487b7100000000000000000000000000000000000000000000000000000000600052604160045260246000fd5b6200030382620002b8565b810181811067ffffffffffffffff82111715620003255762000324620002c9565b5b80604052505050565b60006200033a6200029a565b9050620003488282620002f8565b919050565b600067ffffffffffffffff8211156200036b576200036a620002c9565b5b6200037682620002b8565b9050602081019050919050565b60005b83811015620003a357808201518184015260208101905062000386565b60008484015250505050565b6000620003c6620003c0846200034d565b6200032e565b905082815260208101848484011115620003e557620003e4620002b3565b5b620003f284828562000383565b509392505050565b600082601f830112620004125762000411620002ae565b5b815162000424848260208601620003af565b91505092915050565b600067ffffffffffffffff8211156200044b576200044a620002c9565b5b602082029050602081019050919050565b600080fd5b60006200047862000472846200042d565b6200032e565b905080838252602082019050602084028301858111156200049e576200049d6200045c565b5b835b81811015620004ec57805167ffffffffffffffff811115620004c757620004c6620002ae565b5b808601620004d68982620003fa565b85526020850194505050602081019050620004a0565b5050509392505050565b600082601f8301126200050e576200050d620002ae565b5b81516200052084826020860162000461565b91505092915050565b6000819050919050565b6200053e8162000529565b81146200054a57600080fd5b50565b6000815190506200055e8162000533565b92915050565b60008060006060848603121562000580576200057f620002a4565b5b600084015167ffffffffffffffff811115620005a157620005a0620002a9565b5b620005af86828701620003fa565b935050602084015167ffffffffffffffff811115620005d357620005d2620002a9565b5b620005e186828701620004f6565b9250506040620005f4868287016200054d565b9150509250925092565b600082825260208201905092915050565b7f4120706f6c6c2063616e206e6f742068617665206d6f7265207468616e20333260008201527f206f7074696f6e73000000000000000000000000000000000000000000000000602082015250565b60006200066d602883620005fe565b91506200067a826200060f565b604082019050919050565b60006020820190508181036000830152620006a0816200065e565b9050919050565b600081519050919050565b7f4e487b7100000000000000000000000000000000000000000000000000000000600052602260045260246000fd5b60006002820490506001821680620006fa57607f821691505b60208210810362000710576200070f620006b2565b5b50919050565b60008190508160005260206000209050919050565b60006020601f8301049050919050565b600082821b905092915050565b6000600883026200077a7fffffffffffffffffffffffffffffffffffffffffffffffffffffffffffffffff826200073b565b6200078686836200073b565b95508019841693508086168417925050509392505050565b6000819050919050565b6000620007c9620007c3620007bd8462000529565b6200079e565b62000529565b9050919050565b6000819050919050565b620007e583620007a8565b620007fd620007f482620007d0565b84845462000748565b825550505050565b600090565b6200081462000805565b62000821818484620007da565b505050565b5b8181101562000849576200083d6000826200080a565b60018101905062000827565b5050565b601f8211156200089857620008628162000716565b6200086d846200072b565b810160208510156200087d578190505b620008956200088c856200072b565b83018262000826565b50505b505050565b600082821c905092915050565b6000620008bd600019846008026200089d565b1980831691505092915050565b6000620008d88383620008aa565b9150826002028217905092915050565b620008f382620006a7565b67ffffffffffffffff8111156200090f576200090e620002c9565b5b6200091b8254620006e1565b620009288282856200084d565b600060209050601f8311600181146200096057600084156200094b578287015190505b620009578582620008ca565b865550620009c7565b601f198416620009708662000716565b60005b828110156200099a5784890151825560018201915060208501945060208101905062000973565b86831015620009ba5784890151620009b6601f891682620008aa565b8355505b6001600288020188555050505b505050505050565b7f4e487b7100000000000000000000000000000000000000000000000000000000600052601160045260246000fd5b600062000a0b8262000529565b915062000a188362000529565b925082820190508082111562000a335762000a32620009cf565b5b92915050565b7f4e487b7100000000000000000000000000000000000000000000000000000000600052603260045260246000fd5b600081905092915050565b600062000a8082620006a7565b62000a8c818562000a68565b935062000a9e81856020860162000383565b80840191505092915050565b600062000ab8828462000a73565b915081905092915050565b600062000ad08262000529565b91507fffffffffffffffffffffffffffffffffffffffffffffffffffffffffffffffff820362000b055762000b04620009cf565b5b600182019050919050565b6115978062000b206000396000f3fe608060405234801561001057600080fd5b50600436106100885760003560e01c8063b2db35031161005b578063b2db350314610103578063cc2ee19614610121578063eff38f921461013f578063fc36e15b1461015d57610088565b806346e79ffc1461008d578063805265e5146100975780638e7ea5b2146100c75780639a0e7d66146100e5575b600080fd5b61009561018d565b005b6100b160048036038101906100ac9190610b6a565b6102ba565b6040516100be9190610bcc565b60405180910390f35b6100cf61034d565b6040516100dc9190610c66565b60405180910390f35b6100ed6103df565b6040516100fa9190610bcc565b60405180910390f35b61010b6103e9565b6040516101189190610bcc565b60405180910390f35b6101296103f3565b6040516101369190610d94565b60405180910390f35b6101476104cc565b6040516101549190610c66565b60405180910390f35b61017760048036038101906101729190610b6a565b61055e565b6040516101849190610dd1565b60405180910390f35b60008054906101000a900473ffffffffffffffffffffffffffffffffffffffff1673ffffffffffffffffffffffffffffffffffffffff163373ffffffffffffffffffffffffffffffffffffffff161461021b576040517f08c379a000000000000000000000000000000000000000000000000000000000815260040161021290610e38565b60405180910390fd5b600060149054906101000a900460ff1615610261577f3c24483b1a54daf2fdb8b301d327e5f87a37721eba6c3e37084a1ffc9ad83c3e60405160405180910390a161028e565b7f8d1879e4a6c38fc7a185f585f2edec4cc9560a351d67371bc56a912603a0219360405160405180910390a15b600060149054906101000a900460ff1615600060146101000a81548160ff021916908315150217905550565b60006009826040516102cc9190610e94565b908152602001604051809103902060009054906101000a900460ff16610327576040517f08c379a000000000000000000000000000000000000000000000000000000000815260040161031e90610ef7565b60405180910390fd5b6007826040516103379190610e94565b9081526020016040518091039020549050919050565b60606005805461035c90610f46565b80601f016020809104026020016040519081016040528092919081815260200182805461038890610f46565b80156103d55780601f106103aa576101008083540402835291602001916103d5565b820191906000526020600020905b8154815290600101906020018083116103b857829003601f168201915b5050505050905090565b6000600354905090565b6000600454905090565b60606002805480602002602001604051908101604052809291908181526020016000905b828210156104c357838290600052602060002001805461043690610f46565b80601f016020809104026020016040519081016040528092919081815260200182805461046290610f46565b80156104af5780601f10610484576101008083540402835291602001916104af565b820191906000526020600020905b81548152906001019060200180831161049257829003601f168201915b505050505081526020019060010190610417565b50505050905090565b6060600180546104db90610f46565b80601f016020809104026020016040519081016040528092919081815260200182805461050790610f46565b80156105545780601f1061052957610100808354040283529160200191610554565b820191906000526020600020905b81548152906001019060200180831161053757829003601f168201915b5050505050905090565b6000600860003373ffffffffffffffffffffffffffffffffffffffff1673ffffffffffffffffffffffffffffffffffffffff16815260200190815260200160002060009054906101000a900460ff16156105ed576040517f08c379a00000000000000000000000000000000000000000000000000000000081526004016105e490610fc3565b60405180910390fd5b600060149054906101000a900460ff161561063d576040517f08c379a00000000000000000000000000000000000000000000000000000000081526004016106349061102f565b60405180910390fd5b600060065414610869577f35b19081975ea7023b694708fbe0226138af41ff25a1b73420cc13026bd477be600560405161067791906110e8565b60405180910390a160065442106106c3576040517f08c379a00000000000000000000000000000000000000000000000000000000081526004016106ba90611156565b60405180910390fd5b6009826040516106d39190610e94565b908152602001604051809103902060009054906101000a900460ff1661072e576040517f08c379a000000000000000000000000000000000000000000000000000000000815260040161072590610ef7565b60405180910390fd5b60078260405161073e9190610e94565b9081526020016040518091039020600081548092919061075d906111a5565b9190505550600760056040516107739190611270565b9081526020016040518091039020546007836040516107929190610e94565b908152602001604051809103902054106107b75781600590816107b5919061141e565b505b600360008154809291906107ca906111a5565b91905055506001600860003373ffffffffffffffffffffffffffffffffffffffff1673ffffffffffffffffffffffffffffffffffffffff16815260200190815260200160002060006101000a81548160ff0219169083151502179055507f866dc605853954ffa419910eb05d67f430efec2e7db7ce135bf55565667a4ab43383604051610858929190611531565b60405180910390a160019050610a0b565b6009826040516108799190610e94565b908152602001604051809103902060009054906101000a900460ff166108d4576040517f08c379a00000000000000000000000000000000000000000000000000000000081526004016108cb90610ef7565b60405180910390fd5b6007826040516108e49190610e94565b90815260200160405180910390206000815480929190610903906111a5565b9190505550600760056040516109199190611270565b9081526020016040518091039020546007836040516109389190610e94565b9081526020016040518091039020541061095d57816005908161095b919061141e565b505b60036000815480929190610970906111a5565b91905055506001600860003373ffffffffffffffffffffffffffffffffffffffff1673ffffffffffffffffffffffffffffffffffffffff16815260200190815260200160002060006101000a81548160ff0219169083151502179055507f866dc605853954ffa419910eb05d67f430efec2e7db7ce135bf55565667a4ab433836040516109fe929190611531565b60405180910390a1600190505b919050565b6000604051905090565b600080fd5b600080fd5b600080fd5b600080fd5b6000601f19601f8301169050919050565b7f4e487b7100000000000000000000000000000000000000000000000000000000600052604160045260246000fd5b610a7782610a2e565b810181811067ffffffffffffffff82111715610a9657610a95610a3f565b5b80604052505050565b6000610aa9610a10565b9050610ab58282610a6e565b919050565b600067ffffffffffffffff821115610ad557610ad4610a3f565b5b610ade82610a2e565b9050602081019050919050565b82818337600083830152505050565b6000610b0d610b0884610aba565b610a9f565b905082815260208101848484011115610b2957610b28610a29565b5b610b34848285610aeb565b509392505050565b600082601f830112610b5157610b50610a24565b5b8135610b61848260208601610afa565b91505092915050565b600060208284031215610b8057610b7f610a1a565b5b600082013567ffffffffffffffff811115610b9e57610b9d610a1f565b5b610baa84828501610b3c565b91505092915050565b6000819050919050565b610bc681610bb3565b82525050565b6000602082019050610be16000830184610bbd565b92915050565b600081519050919050565b600082825260208201905092915050565b60005b83811015610c21578082015181840152602081019050610c06565b60008484015250505050565b6000610c3882610be7565b610c428185610bf2565b9350610c52818560208601610c03565b610c5b81610a2e565b840191505092915050565b60006020820190508181036000830152610c808184610c2d565b905092915050565b600081519050919050565b600082825260208201905092915050565b6000819050602082019050919050565b600082825260208201905092915050565b6000610cd082610be7565b610cda8185610cb4565b9350610cea818560208601610c03565b610cf381610a2e565b840191505092915050565b6000610d0a8383610cc5565b905092915050565b6000602082019050919050565b6000610d2a82610c88565b610d348185610c93565b935083602082028501610d4685610ca4565b8060005b85811015610d825784840389528151610d638582610cfe565b9450610d6e83610d12565b925060208a01995050600181019050610d4a565b50829750879550505050505092915050565b60006020820190508181036000830152610dae8184610d1f565b905092915050565b60008115159050919050565b610dcb81610db6565b82525050565b6000602082019050610de66000830184610dc2565b92915050565b7f4f6e6c7920746865206f776e65722063616e20646f2074686973000000000000600082015250565b6000610e22601a83610bf2565b9150610e2d82610dec565b602082019050919050565b60006020820190508181036000830152610e5181610e15565b9050919050565b600081905092915050565b6000610e6e82610be7565b610e788185610e58565b9350610e88818560208601610c03565b80840191505092915050565b6000610ea08284610e63565b915081905092915050565b7f4e6f7420612076616c6964206f7074696f6e0000000000000000000000000000600082015250565b6000610ee1601283610bf2565b9150610eec82610eab565b602082019050919050565b60006020820190508181036000830152610f1081610ed4565b9050919050565b7f4e487b7100000000000000000000000000000000000000000000000000000000600052602260045260246000fd5b60006002820490506001821680610f5e57607f821691505b602082108103610f7157610f70610f17565b5b50919050565b7f416c726561647920766f74656400000000000000000000000000000000000000600082015250565b6000610fad600d83610bf2565b9150610fb882610f77565b602082019050919050565b60006020820190508181036000830152610fdc81610fa0565b9050919050565b7f54686520636f6e74726163742069732070617573656400000000000000000000600082015250565b6000611019601683610bf2565b915061102482610fe3565b602082019050919050565b600060208201905081810360008301526110488161100c565b9050919050565b60008190508160005260206000209050919050565b6000815461107181610f46565b61107b8186610bf2565b9450600182166000811461109657600181146110ac576110df565b60ff1983168652811515602002860193506110df565b6110b58561104f565b60005b838110156110d7578154818901526001820191506020810190506110b8565b808801955050505b50505092915050565b600060208201905081810360008301526111028184611064565b905092915050565b7f54686520706f6c6c2068617320656e6465640000000000000000000000000000600082015250565b6000611140601283610bf2565b915061114b8261110a565b602082019050919050565b6000602082019050818103600083015261116f81611133565b9050919050565b7f4e487b7100000000000000000000000000000000000000000000000000000000600052601160045260246000fd5b60006111b082610bb3565b91507fffffffffffffffffffffffffffffffffffffffffffffffffffffffffffffffff82036111e2576111e1611176565b5b600182019050919050565b600081546111fa81610f46565b6112048186610e58565b9450600182166000811461121f576001811461123457611267565b60ff1983168652811515820286019350611267565b61123d8561104f565b60005b8381101561125f57815481890152600182019150602081019050611240565b838801955050505b50505092915050565b600061127c82846111ed565b915081905092915050565b60006020601f8301049050919050565b600082821b905092915050565b6000600883026112d47fffffffffffffffffffffffffffffffffffffffffffffffffffffffffffffffff82611297565b6112de8683611297565b95508019841693508086168417925050509392505050565b6000819050919050565b600061131b61131661131184610bb3565b6112f6565b610bb3565b9050919050565b6000819050919050565b61133583611300565b61134961134182611322565b8484546112a4565b825550505050565b600090565b61135e611351565b61136981848461132c565b505050565b5b8181101561138d57611382600082611356565b60018101905061136f565b5050565b601f8211156113d2576113a38161104f565b6113ac84611287565b810160208510156113bb578190505b6113cf6113c785611287565b83018261136e565b50505b505050565b600082821c905092915050565b60006113f5600019846008026113d7565b1980831691505092915050565b600061140e83836113e4565b9150826002028217905092915050565b61142782610be7565b67ffffffffffffffff8111156114405761143f610a3f565b5b61144a8254610f46565b611455828285611391565b600060209050601f8311600181146114885760008415611476578287015190505b6114808582611402565b8655506114e8565b601f1984166114968661104f565b60005b828110156114be57848901518255600182019150602085019450602081019050611499565b868310156114db57848901516114d7601f8916826113e4565b8355505b6001600288020188555050505b505050505050565b600073ffffffffffffffffffffffffffffffffffffffff82169050919050565b600061151b826114f0565b9050919050565b61152b81611510565b82525050565b60006040820190506115466000830185611522565b81810360208301526115588184610c2d565b9050939250505056fea26469706673582212205e69c01d8343f412f5e8f8d15fcfb5975e8b6548949da2808ee775f9f957694b64736f6c63430008130033","opcodes":"PUSH1 0x80 PUSH1 0x40 MSTORE PUSH1 0x0 DUP1 PUSH1 0x14 PUSH2 0x100 EXP DUP2 SLOAD DUP2 PUSH1 0xFF MUL NOT AND SWAP1 DUP4 ISZERO ISZERO MUL OR SWAP1 SSTORE POP CALLVALUE DUP1 ISZERO PUSH3 0x2B JUMPI PUSH1 0x0 DUP1 REVERT JUMPDEST POP PUSH1 0x40 MLOAD PUSH3 0x20B7 CODESIZE SUB DUP1 PUSH3 0x20B7 DUP4 CODECOPY DUP2 DUP2 ADD PUSH1 0x40 MSTORE DUP2 ADD SWAP1 PUSH3 0x51 SWAP2 SWAP1 PUSH3 0x564 JUMP JUMPDEST PUSH1 0x20 DUP3 MLOAD GT ISZERO PUSH3 0x99 JUMPI PUSH1 0x40 MLOAD PUSH32 0x8C379A000000000000000000000000000000000000000000000000000000000 DUP2 MSTORE PUSH1 0x4 ADD PUSH3 0x90 SWAP1 PUSH3 0x685 JUMP JUMPDEST PUSH1 0x40 MLOAD DUP1 SWAP2 SUB SWAP1 REVERT JUMPDEST CALLER PUSH1 0x0 DUP1 PUSH2 0x100 EXP DUP2 SLOAD DUP2 PUSH20 0xFFFFFFFFFFFFFFFFFFFFFFFFFFFFFFFFFFFFFFFF MUL NOT AND SWAP1 DUP4 PUSH20 0xFFFFFFFFFFFFFFFFFFFFFFFFFFFFFFFFFFFFFFFF AND MUL OR SWAP1 SSTORE POP DUP2 PUSH1 0x2 SWAP1 DUP1 MLOAD SWAP1 PUSH1 0x20 ADD SWAP1 PUSH3 0xF1 SWAP3 SWAP2 SWAP1 PUSH3 0x1AD JUMP JUMPDEST POP DUP3 PUSH1 0x1 SWAP1 DUP2 PUSH3 0x103 SWAP2 SWAP1 PUSH3 0x8E8 JUMP JUMPDEST POP PUSH1 0x0 DUP2 EQ PUSH3 0x122 JUMPI DUP1 TIMESTAMP PUSH3 0x11B SWAP2 SWAP1 PUSH3 0x9FE JUMP JUMPDEST PUSH1 0x6 DUP2 SWAP1 SSTORE POP JUMPDEST DUP2 MLOAD PUSH1 0x4 DUP2 SWAP1 SSTORE POP PUSH1 0x0 JUMPDEST DUP3 MLOAD DUP2 LT ISZERO PUSH3 0x1A3 JUMPI PUSH1 0x1 PUSH1 0x9 DUP5 DUP4 DUP2 MLOAD DUP2 LT PUSH3 0x151 JUMPI PUSH3 0x150 PUSH3 0xA39 JUMP JUMPDEST JUMPDEST PUSH1 0x20 MUL PUSH1 0x20 ADD ADD MLOAD PUSH1 0x40 MLOAD PUSH3 0x168 SWAP2 SWAP1 PUSH3 0xAAA JUMP JUMPDEST SWAP1 DUP2 MSTORE PUSH1 0x20 ADD PUSH1 0x40 MLOAD DUP1 SWAP2 SUB SWAP1 KECCAK256 PUSH1 0x0 PUSH2 0x100 EXP DUP2 SLOAD DUP2 PUSH1 0xFF MUL NOT AND SWAP1 DUP4 ISZERO ISZERO MUL OR SWAP1 SSTORE POP DUP1 DUP1 PUSH3 0x19A SWAP1 PUSH3 0xAC3 JUMP JUMPDEST SWAP2 POP POP PUSH3 0x12D JUMP JUMPDEST POP POP POP POP PUSH3 0xB10 JUMP JUMPDEST DUP3 DUP1 SLOAD DUP3 DUP3 SSTORE SWAP1 PUSH1 0x0 MSTORE PUSH1 0x20 PUSH1 0x0 KECCAK256 SWAP1 DUP2 ADD SWAP3 DUP3 ISZERO PUSH3 0x1FA JUMPI SWAP2 PUSH1 0x20 MUL DUP3 ADD JUMPDEST DUP3 DUP2 GT ISZERO PUSH3 0x1F9 JUMPI DUP3 MLOAD DUP3 SWAP1 DUP2 PUSH3 0x1E8 SWAP2 SWAP1 PUSH3 0x8E8 JUMP JUMPDEST POP SWAP2 PUSH1 0x20 ADD SWAP2 SWAP1 PUSH1 0x1 ADD SWAP1 PUSH3 0x1CE JUMP JUMPDEST JUMPDEST POP SWAP1 POP PUSH3 0x209 SWAP2 SWAP1 PUSH3 0x20D JUMP JUMPDEST POP SWAP1 JUMP JUMPDEST JUMPDEST DUP1 DUP3 GT ISZERO PUSH3 0x231 JUMPI PUSH1 0x0 DUP2 DUP2 PUSH3 0x227 SWAP2 SWAP1 PUSH3 0x235 JUMP JUMPDEST POP PUSH1 0x1 ADD PUSH3 0x20E JUMP JUMPDEST POP SWAP1 JUMP JUMPDEST POP DUP1 SLOAD PUSH3 0x243 SWAP1 PUSH3 0x6E1 JUMP JUMPDEST PUSH1 0x0 DUP3 SSTORE DUP1 PUSH1 0x1F LT PUSH3 0x257 JUMPI POP PUSH3 0x278 JUMP JUMPDEST PUSH1 0x1F ADD PUSH1 0x20 SWAP1 DIV SWAP1 PUSH1 0x0 MSTORE PUSH1 0x20 PUSH1 0x0 KECCAK256 SWAP1 DUP2 ADD SWAP1 PUSH3 0x277 SWAP2 SWAP1 PUSH3 0x27B JUMP JUMPDEST JUMPDEST POP JUMP JUMPDEST JUMPDEST DUP1 DUP3 GT ISZERO PUSH3 0x296 JUMPI PUSH1 0x0 DUP2 PUSH1 0x0 SWAP1 SSTORE POP PUSH1 0x1 ADD PUSH3 0x27C JUMP JUMPDEST POP SWAP1 JUMP JUMPDEST PUSH1 0x0 PUSH1 0x40 MLOAD SWAP1 POP SWAP1 JUMP JUMPDEST PUSH1 0x0 DUP1 REVERT JUMPDEST PUSH1 0x0 DUP1 REVERT JUMPDEST PUSH1 0x0 DUP1 REVERT JUMPDEST PUSH1 0x0 DUP1 REVERT JUMPDEST PUSH1 0x0 PUSH1 0x1F NOT PUSH1 0x1F DUP4 ADD AND SWAP1 POP SWAP2 SWAP1 POP JUMP JUMPDEST PUSH32 0x4E487B7100000000000000000000000000000000000000000000000000000000 PUSH1 0x0 MSTORE PUSH1 0x41 PUSH1 0x4 MSTORE PUSH1 0x24 PUSH1 0x0 REVERT JUMPDEST PUSH3 0x303 DUP3 PUSH3 0x2B8 JUMP JUMPDEST DUP2 ADD DUP2 DUP2 LT PUSH8 0xFFFFFFFFFFFFFFFF DUP3 GT OR ISZERO PUSH3 0x325 JUMPI PUSH3 0x324 PUSH3 0x2C9 JUMP JUMPDEST JUMPDEST DUP1 PUSH1 0x40 MSTORE POP POP POP JUMP JUMPDEST PUSH1 0x0 PUSH3 0x33A PUSH3 0x29A JUMP JUMPDEST SWAP1 POP PUSH3 0x348 DUP3 DUP3 PUSH3 0x2F8 JUMP JUMPDEST SWAP2 SWAP1 POP JUMP JUMPDEST PUSH1 0x0 PUSH8 0xFFFFFFFFFFFFFFFF DUP3 GT ISZERO PUSH3 0x36B JUMPI PUSH3 0x36A PUSH3 0x2C9 JUMP JUMPDEST JUMPDEST PUSH3 0x376 DUP3 PUSH3 0x2B8 JUMP JUMPDEST SWAP1 POP PUSH1 0x20 DUP2 ADD SWAP1 POP SWAP2 SWAP1 POP JUMP JUMPDEST PUSH1 0x0 JUMPDEST DUP4 DUP2 LT ISZERO PUSH3 0x3A3 JUMPI DUP1 DUP3 ADD MLOAD DUP2 DUP5 ADD MSTORE PUSH1 0x20 DUP2 ADD SWAP1 POP PUSH3 0x386 JUMP JUMPDEST PUSH1 0x0 DUP5 DUP5 ADD MSTORE POP POP POP POP JUMP JUMPDEST PUSH1 0x0 PUSH3 0x3C6 PUSH3 0x3C0 DUP5 PUSH3 0x34D JUMP JUMPDEST PUSH3 0x32E JUMP JUMPDEST SWAP1 POP DUP3 DUP2 MSTORE PUSH1 0x20 DUP2 ADD DUP5 DUP5 DUP5 ADD GT ISZERO PUSH3 0x3E5 JUMPI PUSH3 0x3E4 PUSH3 0x2B3 JUMP JUMPDEST JUMPDEST PUSH3 0x3F2 DUP5 DUP3 DUP6 PUSH3 0x383 JUMP JUMPDEST POP SWAP4 SWAP3 POP POP POP JUMP JUMPDEST PUSH1 0x0 DUP3 PUSH1 0x1F DUP4 ADD SLT PUSH3 0x412 JUMPI PUSH3 0x411 PUSH3 0x2AE JUMP JUMPDEST JUMPDEST DUP2 MLOAD PUSH3 0x424 DUP5 DUP3 PUSH1 0x20 DUP7 ADD PUSH3 0x3AF JUMP JUMPDEST SWAP2 POP POP SWAP3 SWAP2 POP POP JUMP JUMPDEST PUSH1 0x0 PUSH8 0xFFFFFFFFFFFFFFFF DUP3 GT ISZERO PUSH3 0x44B JUMPI PUSH3 0x44A PUSH3 0x2C9 JUMP JUMPDEST JUMPDEST PUSH1 0x20 DUP3 MUL SWAP1 POP PUSH1 0x20 DUP2 ADD SWAP1 POP SWAP2 SWAP1 POP JUMP JUMPDEST PUSH1 0x0 DUP1 REVERT JUMPDEST PUSH1 0x0 PUSH3 0x478 PUSH3 0x472 DUP5 PUSH3 0x42D JUMP JUMPDEST PUSH3 0x32E JUMP JUMPDEST SWAP1 POP DUP1 DUP4 DUP3 MSTORE PUSH1 0x20 DUP3 ADD SWAP1 POP PUSH1 0x20 DUP5 MUL DUP4 ADD DUP6 DUP2 GT ISZERO PUSH3 0x49E JUMPI PUSH3 0x49D PUSH3 0x45C JUMP JUMPDEST JUMPDEST DUP4 JUMPDEST DUP2 DUP2 LT ISZERO PUSH3 0x4EC JUMPI DUP1 MLOAD PUSH8 0xFFFFFFFFFFFFFFFF DUP2 GT ISZERO PUSH3 0x4C7 JUMPI PUSH3 0x4C6 PUSH3 0x2AE JUMP JUMPDEST JUMPDEST DUP1 DUP7 ADD PUSH3 0x4D6 DUP10 DUP3 PUSH3 0x3FA JUMP JUMPDEST DUP6 MSTORE PUSH1 0x20 DUP6 ADD SWAP5 POP POP POP PUSH1 0x20 DUP2 ADD SWAP1 POP PUSH3 0x4A0 JUMP JUMPDEST POP POP POP SWAP4 SWAP3 POP POP POP JUMP JUMPDEST PUSH1 0x0 DUP3 PUSH1 0x1F DUP4 ADD SLT PUSH3 0x50E JUMPI PUSH3 0x50D PUSH3 0x2AE JUMP JUMPDEST JUMPDEST DUP2 MLOAD PUSH3 0x520 DUP5 DUP3 PUSH1 0x20 DUP7 ADD PUSH3 0x461 JUMP JUMPDEST SWAP2 POP POP SWAP3 SWAP2 POP POP JUMP JUMPDEST PUSH1 0x0 DUP2 SWAP1 POP SWAP2 SWAP1 POP JUMP JUMPDEST PUSH3 0x53E DUP2 PUSH3 0x529 JUMP JUMPDEST DUP2 EQ PUSH3 0x54A JUMPI PUSH1 0x0 DUP1 REVERT JUMPDEST POP JUMP JUMPDEST PUSH1 0x0 DUP2 MLOAD SWAP1 POP PUSH3 0x55E DUP2 PUSH3 0x533 JUMP JUMPDEST SWAP3 SWAP2 POP POP JUMP JUMPDEST PUSH1 0x0 DUP1 PUSH1 0x0 PUSH1 0x60 DUP5 DUP7 SUB SLT ISZERO PUSH3 0x580 JUMPI PUSH3 0x57F PUSH3 0x2A4 JUMP JUMPDEST JUMPDEST PUSH1 0x0 DUP5 ADD MLOAD PUSH8 0xFFFFFFFFFFFFFFFF DUP2 GT ISZERO PUSH3 0x5A1 JUMPI PUSH3 0x5A0 PUSH3 0x2A9 JUMP JUMPDEST JUMPDEST PUSH3 0x5AF DUP7 DUP3 DUP8 ADD PUSH3 0x3FA JUMP JUMPDEST SWAP4 POP POP PUSH1 0x20 DUP5 ADD MLOAD PUSH8 0xFFFFFFFFFFFFFFFF DUP2 GT ISZERO PUSH3 0x5D3 JUMPI PUSH3 0x5D2 PUSH3 0x2A9 JUMP JUMPDEST JUMPDEST PUSH3 0x5E1 DUP7 DUP3 DUP8 ADD PUSH3 0x4F6 JUMP JUMPDEST SWAP3 POP POP PUSH1 0x40 PUSH3 0x5F4 DUP7 DUP3 DUP8 ADD PUSH3 0x54D JUMP JUMPDEST SWAP2 POP POP SWAP3 POP SWAP3 POP SWAP3 JUMP JUMPDEST PUSH1 0x0 DUP3 DUP3 MSTORE PUSH1 0x20 DUP3 ADD SWAP1 POP SWAP3 SWAP2 POP POP JUMP JUMPDEST PUSH32 0x4120706F6C6C2063616E206E6F742068617665206D6F7265207468616E203332 PUSH1 0x0 DUP3 ADD MSTORE PUSH32 0x206F7074696F6E73000000000000000000000000000000000000000000000000 PUSH1 0x20 DUP3 ADD MSTORE POP JUMP JUMPDEST PUSH1 0x0 PUSH3 0x66D PUSH1 0x28 DUP4 PUSH3 0x5FE JUMP JUMPDEST SWAP2 POP PUSH3 0x67A DUP3 PUSH3 0x60F JUMP JUMPDEST PUSH1 0x40 DUP3 ADD SWAP1 POP SWAP2 SWAP1 POP JUMP JUMPDEST PUSH1 0x0 PUSH1 0x20 DUP3 ADD SWAP1 POP DUP2 DUP2 SUB PUSH1 0x0 DUP4 ADD MSTORE PUSH3 0x6A0 DUP2 PUSH3 0x65E JUMP JUMPDEST SWAP1 POP SWAP2 SWAP1 POP JUMP JUMPDEST PUSH1 0x0 DUP2 MLOAD SWAP1 POP SWAP2 SWAP1 POP JUMP JUMPDEST PUSH32 0x4E487B7100000000000000000000000000000000000000000000000000000000 PUSH1 0x0 MSTORE PUSH1 0x22 PUSH1 0x4 MSTORE PUSH1 0x24 PUSH1 0x0 REVERT JUMPDEST PUSH1 0x0 PUSH1 0x2 DUP3 DIV SWAP1 POP PUSH1 0x1 DUP3 AND DUP1 PUSH3 0x6FA JUMPI PUSH1 0x7F DUP3 AND SWAP2 POP JUMPDEST PUSH1 0x20 DUP3 LT DUP2 SUB PUSH3 0x710 JUMPI PUSH3 0x70F PUSH3 0x6B2 JUMP JUMPDEST JUMPDEST POP SWAP2 SWAP1 POP JUMP JUMPDEST PUSH1 0x0 DUP2 SWAP1 POP DUP2 PUSH1 0x0 MSTORE PUSH1 0x20 PUSH1 0x0 KECCAK256 SWAP1 POP SWAP2 SWAP1 POP JUMP JUMPDEST PUSH1 0x0 PUSH1 0x20 PUSH1 0x1F DUP4 ADD DIV SWAP1 POP SWAP2 SWAP1 POP JUMP JUMPDEST PUSH1 0x0 DUP3 DUP3 SHL SWAP1 POP SWAP3 SWAP2 POP POP JUMP JUMPDEST PUSH1 0x0 PUSH1 0x8 DUP4 MUL PUSH3 0x77A PUSH32 0xFFFFFFFFFFFFFFFFFFFFFFFFFFFFFFFFFFFFFFFFFFFFFFFFFFFFFFFFFFFFFFFF DUP3 PUSH3 0x73B JUMP JUMPDEST PUSH3 0x786 DUP7 DUP4 PUSH3 0x73B JUMP JUMPDEST SWAP6 POP DUP1 NOT DUP5 AND SWAP4 POP DUP1 DUP7 AND DUP5 OR SWAP3 POP POP POP SWAP4 SWAP3 POP POP POP JUMP JUMPDEST PUSH1 0x0 DUP2 SWAP1 POP SWAP2 SWAP1 POP JUMP JUMPDEST PUSH1 0x0 PUSH3 0x7C9 PUSH3 0x7C3 PUSH3 0x7BD DUP5 PUSH3 0x529 JUMP JUMPDEST PUSH3 0x79E JUMP JUMPDEST PUSH3 0x529 JUMP JUMPDEST SWAP1 POP SWAP2 SWAP1 POP JUMP JUMPDEST PUSH1 0x0 DUP2 SWAP1 POP SWAP2 SWAP1 POP JUMP JUMPDEST PUSH3 0x7E5 DUP4 PUSH3 0x7A8 JUMP JUMPDEST PUSH3 0x7FD PUSH3 0x7F4 DUP3 PUSH3 0x7D0 JUMP JUMPDEST DUP5 DUP5 SLOAD PUSH3 0x748 JUMP JUMPDEST DUP3 SSTORE POP POP POP POP JUMP JUMPDEST PUSH1 0x0 SWAP1 JUMP JUMPDEST PUSH3 0x814 PUSH3 0x805 JUMP JUMPDEST PUSH3 0x821 DUP2 DUP5 DUP5 PUSH3 0x7DA JUMP JUMPDEST POP POP POP JUMP JUMPDEST JUMPDEST DUP2 DUP2 LT ISZERO PUSH3 0x849 JUMPI PUSH3 0x83D PUSH1 0x0 DUP3 PUSH3 0x80A JUMP JUMPDEST PUSH1 0x1 DUP2 ADD SWAP1 POP PUSH3 0x827 JUMP JUMPDEST POP POP JUMP JUMPDEST PUSH1 0x1F DUP3 GT ISZERO PUSH3 0x898 JUMPI PUSH3 0x862 DUP2 PUSH3 0x716 JUMP JUMPDEST PUSH3 0x86D DUP5 PUSH3 0x72B JUMP JUMPDEST DUP2 ADD PUSH1 0x20 DUP6 LT ISZERO PUSH3 0x87D JUMPI DUP2 SWAP1 POP JUMPDEST PUSH3 0x895 PUSH3 0x88C DUP6 PUSH3 0x72B JUMP JUMPDEST DUP4 ADD DUP3 PUSH3 0x826 JUMP JUMPDEST POP POP JUMPDEST POP POP POP JUMP JUMPDEST PUSH1 0x0 DUP3 DUP3 SHR SWAP1 POP SWAP3 SWAP2 POP POP JUMP JUMPDEST PUSH1 0x0 PUSH3 0x8BD PUSH1 0x0 NOT DUP5 PUSH1 0x8 MUL PUSH3 0x89D JUMP JUMPDEST NOT DUP1 DUP4 AND SWAP2 POP POP SWAP3 SWAP2 POP POP JUMP JUMPDEST PUSH1 0x0 PUSH3 0x8D8 DUP4 DUP4 PUSH3 0x8AA JUMP JUMPDEST SWAP2 POP DUP3 PUSH1 0x2 MUL DUP3 OR SWAP1 POP SWAP3 SWAP2 POP POP JUMP JUMPDEST PUSH3 0x8F3 DUP3 PUSH3 0x6A7 JUMP JUMPDEST PUSH8 0xFFFFFFFFFFFFFFFF DUP2 GT ISZERO PUSH3 0x90F JUMPI PUSH3 0x90E PUSH3 0x2C9 JUMP JUMPDEST JUMPDEST PUSH3 0x91B DUP3 SLOAD PUSH3 0x6E1 JUMP JUMPDEST PUSH3 0x928 DUP3 DUP3 DUP6 PUSH3 0x84D JUMP JUMPDEST PUSH1 0x0 PUSH1 0x20 SWAP1 POP PUSH1 0x1F DUP4 GT PUSH1 0x1 DUP2 EQ PUSH3 0x960 JUMPI PUSH1 0x0 DUP5 ISZERO PUSH3 0x94B JUMPI DUP3 DUP8 ADD MLOAD SWAP1 POP JUMPDEST PUSH3 0x957 DUP6 DUP3 PUSH3 0x8CA JUMP JUMPDEST DUP7 SSTORE POP PUSH3 0x9C7 JUMP JUMPDEST PUSH1 0x1F NOT DUP5 AND PUSH3 0x970 DUP7 PUSH3 0x716 JUMP JUMPDEST PUSH1 0x0 JUMPDEST DUP3 DUP2 LT ISZERO PUSH3 0x99A JUMPI DUP5 DUP10 ADD MLOAD DUP3 SSTORE PUSH1 0x1 DUP3 ADD SWAP2 POP PUSH1 0x20 DUP6 ADD SWAP5 POP PUSH1 0x20 DUP2 ADD SWAP1 POP PUSH3 0x973 JUMP JUMPDEST DUP7 DUP4 LT ISZERO PUSH3 0x9BA JUMPI DUP5 DUP10 ADD MLOAD PUSH3 0x9B6 PUSH1 0x1F DUP10 AND DUP3 PUSH3 0x8AA JUMP JUMPDEST DUP4 SSTORE POP JUMPDEST PUSH1 0x1 PUSH1 0x2 DUP9 MUL ADD DUP9 SSTORE POP POP POP JUMPDEST POP POP POP POP POP POP JUMP JUMPDEST PUSH32 0x4E487B7100000000000000000000000000000000000000000000000000000000 PUSH1 0x0 MSTORE PUSH1 0x11 PUSH1 0x4 MSTORE PUSH1 0x24 PUSH1 0x0 REVERT JUMPDEST PUSH1 0x0 PUSH3 0xA0B DUP3 PUSH3 0x529 JUMP JUMPDEST SWAP2 POP PUSH3 0xA18 DUP4 PUSH3 0x529 JUMP JUMPDEST SWAP3 POP DUP3 DUP3 ADD SWAP1 POP DUP1 DUP3 GT ISZERO PUSH3 0xA33 JUMPI PUSH3 0xA32 PUSH3 0x9CF JUMP JUMPDEST JUMPDEST SWAP3 SWAP2 POP POP JUMP JUMPDEST PUSH32 0x4E487B7100000000000000000000000000000000000000000000000000000000 PUSH1 0x0 MSTORE PUSH1 0x32 PUSH1 0x4 MSTORE PUSH1 0x24 PUSH1 0x0 REVERT JUMPDEST PUSH1 0x0 DUP2 SWAP1 POP SWAP3 SWAP2 POP POP JUMP JUMPDEST PUSH1 0x0 PUSH3 0xA80 DUP3 PUSH3 0x6A7 JUMP JUMPDEST PUSH3 0xA8C DUP2 DUP6 PUSH3 0xA68 JUMP JUMPDEST SWAP4 POP PUSH3 0xA9E DUP2 DUP6 PUSH1 0x20 DUP7 ADD PUSH3 0x383 JUMP JUMPDEST DUP1 DUP5 ADD SWAP2 POP POP SWAP3 SWAP2 POP POP JUMP JUMPDEST PUSH1 0x0 PUSH3 0xAB8 DUP3 DUP5 PUSH3 0xA73 JUMP JUMPDEST SWAP2 POP DUP2 SWAP1 POP SWAP3 SWAP2 POP POP JUMP JUMPDEST PUSH1 0x0 PUSH3 0xAD0 DUP3 PUSH3 0x529 JUMP JUMPDEST SWAP2 POP PUSH32 0xFFFFFFFFFFFFFFFFFFFFFFFFFFFFFFFFFFFFFFFFFFFFFFFFFFFFFFFFFFFFFFFF DUP3 SUB PUSH3 0xB05 JUMPI PUSH3 0xB04 PUSH3 0x9CF JUMP JUMPDEST JUMPDEST PUSH1 0x1 DUP3 ADD SWAP1 POP SWAP2 SWAP1 POP JUMP JUMPDEST PUSH2 0x1597 DUP1 PUSH3 0xB20 PUSH1 0x0 CODECOPY PUSH1 0x0 RETURN INVALID PUSH1 0x80 PUSH1 0x40 MSTORE CALLVALUE DUP1 ISZERO PUSH2 0x10 JUMPI PUSH1 0x0 DUP1 REVERT JUMPDEST POP PUSH1 0x4 CALLDATASIZE LT PUSH2 0x88 JUMPI PUSH1 0x0 CALLDATALOAD PUSH1 0xE0 SHR DUP1 PUSH4 0xB2DB3503 GT PUSH2 0x5B JUMPI DUP1 PUSH4 0xB2DB3503 EQ PUSH2 0x103 JUMPI DUP1 PUSH4 0xCC2EE196 EQ PUSH2 0x121 JUMPI DUP1 PUSH4 0xEFF38F92 EQ PUSH2 0x13F JUMPI DUP1 PUSH4 0xFC36E15B EQ PUSH2 0x15D JUMPI PUSH2 0x88 JUMP JUMPDEST DUP1 PUSH4 0x46E79FFC EQ PUSH2 0x8D JUMPI DUP1 PUSH4 0x805265E5 EQ PUSH2 0x97 JUMPI DUP1 PUSH4 0x8E7EA5B2 EQ PUSH2 0xC7 JUMPI DUP1 PUSH4 0x9A0E7D66 EQ PUSH2 0xE5 JUMPI JUMPDEST PUSH1 0x0 DUP1 REVERT JUMPDEST PUSH2 0x95 PUSH2 0x18D JUMP JUMPDEST STOP JUMPDEST PUSH2 0xB1 PUSH1 0x4 DUP1 CALLDATASIZE SUB DUP2 ADD SWAP1 PUSH2 0xAC SWAP2 SWAP1 PUSH2 0xB6A JUMP JUMPDEST PUSH2 0x2BA JUMP JUMPDEST PUSH1 0x40 MLOAD PUSH2 0xBE SWAP2 SWAP1 PUSH2 0xBCC JUMP JUMPDEST PUSH1 0x40 MLOAD DUP1 SWAP2 SUB SWAP1 RETURN JUMPDEST PUSH2 0xCF PUSH2 0x34D JUMP JUMPDEST PUSH1 0x40 MLOAD PUSH2 0xDC SWAP2 SWAP1 PUSH2 0xC66 JUMP JUMPDEST PUSH1 0x40 MLOAD DUP1 SWAP2 SUB SWAP1 RETURN JUMPDEST PUSH2 0xED PUSH2 0x3DF JUMP JUMPDEST PUSH1 0x40 MLOAD PUSH2 0xFA SWAP2 SWAP1 PUSH2 0xBCC JUMP JUMPDEST PUSH1 0x40 MLOAD DUP1 SWAP2 SUB SWAP1 RETURN JUMPDEST PUSH2 0x10B PUSH2 0x3E9 JUMP JUMPDEST PUSH1 0x40 MLOAD PUSH2 0x118 SWAP2 SWAP1 PUSH2 0xBCC JUMP JUMPDEST PUSH1 0x40 MLOAD DUP1 SWAP2 SUB SWAP1 RETURN JUMPDEST PUSH2 0x129 PUSH2 0x3F3 JUMP JUMPDEST PUSH1 0x40 MLOAD PUSH2 0x136 SWAP2 SWAP1 PUSH2 0xD94 JUMP JUMPDEST PUSH1 0x40 MLOAD DUP1 SWAP2 SUB SWAP1 RETURN JUMPDEST PUSH2 0x147 PUSH2 0x4CC JUMP JUMPDEST PUSH1 0x40 MLOAD PUSH2 0x154 SWAP2 SWAP1 PUSH2 0xC66 JUMP JUMPDEST PUSH1 0x40 MLOAD DUP1 SWAP2 SUB SWAP1 RETURN JUMPDEST PUSH2 0x177 PUSH1 0x4 DUP1 CALLDATASIZE SUB DUP2 ADD SWAP1 PUSH2 0x172 SWAP2 SWAP1 PUSH2 0xB6A JUMP JUMPDEST PUSH2 0x55E JUMP JUMPDEST PUSH1 0x40 MLOAD PUSH2 0x184 SWAP2 SWAP1 PUSH2 0xDD1 JUMP JUMPDEST PUSH1 0x40 MLOAD DUP1 SWAP2 SUB SWAP1 RETURN JUMPDEST PUSH1 0x0 DUP1 SLOAD SWAP1 PUSH2 0x100 EXP SWAP1 DIV PUSH20 0xFFFFFFFFFFFFFFFFFFFFFFFFFFFFFFFFFFFFFFFF AND PUSH20 0xFFFFFFFFFFFFFFFFFFFFFFFFFFFFFFFFFFFFFFFF AND CALLER PUSH20 0xFFFFFFFFFFFFFFFFFFFFFFFFFFFFFFFFFFFFFFFF AND EQ PUSH2 0x21B JUMPI PUSH1 0x40 MLOAD PUSH32 0x8C379A000000000000000000000000000000000000000000000000000000000 DUP2 MSTORE PUSH1 0x4 ADD PUSH2 0x212 SWAP1 PUSH2 0xE38 JUMP JUMPDEST PUSH1 0x40 MLOAD DUP1 SWAP2 SUB SWAP1 REVERT JUMPDEST PUSH1 0x0 PUSH1 0x14 SWAP1 SLOAD SWAP1 PUSH2 0x100 EXP SWAP1 DIV PUSH1 0xFF AND ISZERO PUSH2 0x261 JUMPI PUSH32 0x3C24483B1A54DAF2FDB8B301D327E5F87A37721EBA6C3E37084A1FFC9AD83C3E PUSH1 0x40 MLOAD PUSH1 0x40 MLOAD DUP1 SWAP2 SUB SWAP1 LOG1 PUSH2 0x28E JUMP JUMPDEST PUSH32 0x8D1879E4A6C38FC7A185F585F2EDEC4CC9560A351D67371BC56A912603A02193 PUSH1 0x40 MLOAD PUSH1 0x40 MLOAD DUP1 SWAP2 SUB SWAP1 LOG1 JUMPDEST PUSH1 0x0 PUSH1 0x14 SWAP1 SLOAD SWAP1 PUSH2 0x100 EXP SWAP1 DIV PUSH1 0xFF AND ISZERO PUSH1 0x0 PUSH1 0x14 PUSH2 0x100 EXP DUP2 SLOAD DUP2 PUSH1 0xFF MUL NOT AND SWAP1 DUP4 ISZERO ISZERO MUL OR SWAP1 SSTORE POP JUMP JUMPDEST PUSH1 0x0 PUSH1 0x9 DUP3 PUSH1 0x40 MLOAD PUSH2 0x2CC SWAP2 SWAP1 PUSH2 0xE94 JUMP JUMPDEST SWAP1 DUP2 MSTORE PUSH1 0x20 ADD PUSH1 0x40 MLOAD DUP1 SWAP2 SUB SWAP1 KECCAK256 PUSH1 0x0 SWAP1 SLOAD SWAP1 PUSH2 0x100 EXP SWAP1 DIV PUSH1 0xFF AND PUSH2 0x327 JUMPI PUSH1 0x40 MLOAD PUSH32 0x8C379A000000000000000000000000000000000000000000000000000000000 DUP2 MSTORE PUSH1 0x4 ADD PUSH2 0x31E SWAP1 PUSH2 0xEF7 JUMP JUMPDEST PUSH1 0x40 MLOAD DUP1 SWAP2 SUB SWAP1 REVERT JUMPDEST PUSH1 0x7 DUP3 PUSH1 0x40 MLOAD PUSH2 0x337 SWAP2 SWAP1 PUSH2 0xE94 JUMP JUMPDEST SWAP1 DUP2 MSTORE PUSH1 0x20 ADD PUSH1 0x40 MLOAD DUP1 SWAP2 SUB SWAP1 KECCAK256 SLOAD SWAP1 POP SWAP2 SWAP1 POP JUMP JUMPDEST PUSH1 0x60 PUSH1 0x5 DUP1 SLOAD PUSH2 0x35C SWAP1 PUSH2 0xF46 JUMP JUMPDEST DUP1 PUSH1 0x1F ADD PUSH1 0x20 DUP1 SWAP2 DIV MUL PUSH1 0x20 ADD PUSH1 0x40 MLOAD SWAP1 DUP2 ADD PUSH1 0x40 MSTORE DUP1 SWAP3 SWAP2 SWAP1 DUP2 DUP2 MSTORE PUSH1 0x20 ADD DUP3 DUP1 SLOAD PUSH2 0x388 SWAP1 PUSH2 0xF46 JUMP JUMPDEST DUP1 ISZERO PUSH2 0x3D5 JUMPI DUP1 PUSH1 0x1F LT PUSH2 0x3AA JUMPI PUSH2 0x100 DUP1 DUP4 SLOAD DIV MUL DUP4 MSTORE SWAP2 PUSH1 0x20 ADD SWAP2 PUSH2 0x3D5 JUMP JUMPDEST DUP3 ADD SWAP2 SWAP1 PUSH1 0x0 MSTORE PUSH1 0x20 PUSH1 0x0 KECCAK256 SWAP1 JUMPDEST DUP2 SLOAD DUP2 MSTORE SWAP1 PUSH1 0x1 ADD SWAP1 PUSH1 0x20 ADD DUP1 DUP4 GT PUSH2 0x3B8 JUMPI DUP3 SWAP1 SUB PUSH1 0x1F AND DUP3 ADD SWAP2 JUMPDEST POP POP POP POP POP SWAP1 POP SWAP1 JUMP JUMPDEST PUSH1 0x0 PUSH1 0x3 SLOAD SWAP1 POP SWAP1 JUMP JUMPDEST PUSH1 0x0 PUSH1 0x4 SLOAD SWAP1 POP SWAP1 JUMP JUMPDEST PUSH1 0x60 PUSH1 0x2 DUP1 SLOAD DUP1 PUSH1 0x20 MUL PUSH1 0x20 ADD PUSH1 0x40 MLOAD SWAP1 DUP2 ADD PUSH1 0x40 MSTORE DUP1 SWAP3 SWAP2 SWAP1 DUP2 DUP2 MSTORE PUSH1 0x20 ADD PUSH1 0x0 SWAP1 JUMPDEST DUP3 DUP3 LT ISZERO PUSH2 0x4C3 JUMPI DUP4 DUP3 SWAP1 PUSH1 0x0 MSTORE PUSH1 0x20 PUSH1 0x0 KECCAK256 ADD DUP1 SLOAD PUSH2 0x436 SWAP1 PUSH2 0xF46 JUMP JUMPDEST DUP1 PUSH1 0x1F ADD PUSH1 0x20 DUP1 SWAP2 DIV MUL PUSH1 0x20 ADD PUSH1 0x40 MLOAD SWAP1 DUP2 ADD PUSH1 0x40 MSTORE DUP1 SWAP3 SWAP2 SWAP1 DUP2 DUP2 MSTORE PUSH1 0x20 ADD DUP3 DUP1 SLOAD PUSH2 0x462 SWAP1 PUSH2 0xF46 JUMP JUMPDEST DUP1 ISZERO PUSH2 0x4AF JUMPI DUP1 PUSH1 0x1F LT PUSH2 0x484 JUMPI PUSH2 0x100 DUP1 DUP4 SLOAD DIV MUL DUP4 MSTORE SWAP2 PUSH1 0x20 ADD SWAP2 PUSH2 0x4AF JUMP JUMPDEST DUP3 ADD SWAP2 SWAP1 PUSH1 0x0 MSTORE PUSH1 0x20 PUSH1 0x0 KECCAK256 SWAP1 JUMPDEST DUP2 SLOAD DUP2 MSTORE SWAP1 PUSH1 0x1 ADD SWAP1 PUSH1 0x20 ADD DUP1 DUP4 GT PUSH2 0x492 JUMPI DUP3 SWAP1 SUB PUSH1 0x1F AND DUP3 ADD SWAP2 JUMPDEST POP POP POP POP POP DUP2 MSTORE PUSH1 0x20 ADD SWAP1 PUSH1 0x1 ADD SWAP1 PUSH2 0x417 JUMP JUMPDEST POP POP POP POP SWAP1 POP SWAP1 JUMP JUMPDEST PUSH1 0x60 PUSH1 0x1 DUP1 SLOAD PUSH2 0x4DB SWAP1 PUSH2 0xF46 JUMP JUMPDEST DUP1 PUSH1 0x1F ADD PUSH1 0x20 DUP1 SWAP2 DIV MUL PUSH1 0x20 ADD PUSH1 0x40 MLOAD SWAP1 DUP2 ADD PUSH1 0x40 MSTORE DUP1 SWAP3 SWAP2 SWAP1 DUP2 DUP2 MSTORE PUSH1 0x20 ADD DUP3 DUP1 SLOAD PUSH2 0x507 SWAP1 PUSH2 0xF46 JUMP JUMPDEST DUP1 ISZERO PUSH2 0x554 JUMPI DUP1 PUSH1 0x1F LT PUSH2 0x529 JUMPI PUSH2 0x100 DUP1 DUP4 SLOAD DIV MUL DUP4 MSTORE SWAP2 PUSH1 0x20 ADD SWAP2 PUSH2 0x554 JUMP JUMPDEST DUP3 ADD SWAP2 SWAP1 PUSH1 0x0 MSTORE PUSH1 0x20 PUSH1 0x0 KECCAK256 SWAP1 JUMPDEST DUP2 SLOAD DUP2 MSTORE SWAP1 PUSH1 0x1 ADD SWAP1 PUSH1 0x20 ADD DUP1 DUP4 GT PUSH2 0x537 JUMPI DUP3 SWAP1 SUB PUSH1 0x1F AND DUP3 ADD SWAP2 JUMPDEST POP POP POP POP POP SWAP1 POP SWAP1 JUMP JUMPDEST PUSH1 0x0 PUSH1 0x8 PUSH1 0x0 CALLER PUSH20 0xFFFFFFFFFFFFFFFFFFFFFFFFFFFFFFFFFFFFFFFF AND PUSH20 0xFFFFFFFFFFFFFFFFFFFFFFFFFFFFFFFFFFFFFFFF AND DUP2 MSTORE PUSH1 0x20 ADD SWAP1 DUP2 MSTORE PUSH1 0x20 ADD PUSH1 0x0 KECCAK256 PUSH1 0x0 SWAP1 SLOAD SWAP1 PUSH2 0x100 EXP SWAP1 DIV PUSH1 0xFF AND ISZERO PUSH2 0x5ED JUMPI PUSH1 0x40 MLOAD PUSH32 0x8C379A000000000000000000000000000000000000000000000000000000000 DUP2 MSTORE PUSH1 0x4 ADD PUSH2 0x5E4 SWAP1 PUSH2 0xFC3 JUMP JUMPDEST PUSH1 0x40 MLOAD DUP1 SWAP2 SUB SWAP1 REVERT JUMPDEST PUSH1 0x0 PUSH1 0x14 SWAP1 SLOAD SWAP1 PUSH2 0x100 EXP SWAP1 DIV PUSH1 0xFF AND ISZERO PUSH2 0x63D JUMPI PUSH1 0x40 MLOAD PUSH32 0x8C379A000000000000000000000000000000000000000000000000000000000 DUP2 MSTORE PUSH1 0x4 ADD PUSH2 0x634 SWAP1 PUSH2 0x102F JUMP JUMPDEST PUSH1 0x40 MLOAD DUP1 SWAP2 SUB SWAP1 REVERT JUMPDEST PUSH1 0x0 PUSH1 0x6 SLOAD EQ PUSH2 0x869 JUMPI PUSH32 0x35B19081975EA7023B694708FBE0226138AF41FF25A1B73420CC13026BD477BE PUSH1 0x5 PUSH1 0x40 MLOAD PUSH2 0x677 SWAP2 SWAP1 PUSH2 0x10E8 JUMP JUMPDEST PUSH1 0x40 MLOAD DUP1 SWAP2 SUB SWAP1 LOG1 PUSH1 0x6 SLOAD TIMESTAMP LT PUSH2 0x6C3 JUMPI PUSH1 0x40 MLOAD PUSH32 0x8C379A000000000000000000000000000000000000000000000000000000000 DUP2 MSTORE PUSH1 0x4 ADD PUSH2 0x6BA SWAP1 PUSH2 0x1156 JUMP JUMPDEST PUSH1 0x40 MLOAD DUP1 SWAP2 SUB SWAP1 REVERT JUMPDEST PUSH1 0x9 DUP3 PUSH1 0x40 MLOAD PUSH2 0x6D3 SWAP2 SWAP1 PUSH2 0xE94 JUMP JUMPDEST SWAP1 DUP2 MSTORE PUSH1 0x20 ADD PUSH1 0x40 MLOAD DUP1 SWAP2 SUB SWAP1 KECCAK256 PUSH1 0x0 SWAP1 SLOAD SWAP1 PUSH2 0x100 EXP SWAP1 DIV PUSH1 0xFF AND PUSH2 0x72E JUMPI PUSH1 0x40 MLOAD PUSH32 0x8C379A000000000000000000000000000000000000000000000000000000000 DUP2 MSTORE PUSH1 0x4 ADD PUSH2 0x725 SWAP1 PUSH2 0xEF7 JUMP JUMPDEST PUSH1 0x40 MLOAD DUP1 SWAP2 SUB SWAP1 REVERT JUMPDEST PUSH1 0x7 DUP3 PUSH1 0x40 MLOAD PUSH2 0x73E SWAP2 SWAP1 PUSH2 0xE94 JUMP JUMPDEST SWAP1 DUP2 MSTORE PUSH1 0x20 ADD PUSH1 0x40 MLOAD DUP1 SWAP2 SUB SWAP1 KECCAK256 PUSH1 0x0 DUP2 SLOAD DUP1 SWAP3 SWAP2 SWAP1 PUSH2 0x75D SWAP1 PUSH2 0x11A5 JUMP JUMPDEST SWAP2 SWAP1 POP SSTORE POP PUSH1 0x7 PUSH1 0x5 PUSH1 0x40 MLOAD PUSH2 0x773 SWAP2 SWAP1 PUSH2 0x1270 JUMP JUMPDEST SWAP1 DUP2 MSTORE PUSH1 0x20 ADD PUSH1 0x40 MLOAD DUP1 SWAP2 SUB SWAP1 KECCAK256 SLOAD PUSH1 0x7 DUP4 PUSH1 0x40 MLOAD PUSH2 0x792 SWAP2 SWAP1 PUSH2 0xE94 JUMP JUMPDEST SWAP1 DUP2 MSTORE PUSH1 0x20 ADD PUSH1 0x40 MLOAD DUP1 SWAP2 SUB SWAP1 KECCAK256 SLOAD LT PUSH2 0x7B7 JUMPI DUP2 PUSH1 0x5 SWAP1 DUP2 PUSH2 0x7B5 SWAP2 SWAP1 PUSH2 0x141E JUMP JUMPDEST POP JUMPDEST PUSH1 0x3 PUSH1 0x0 DUP2 SLOAD DUP1 SWAP3 SWAP2 SWAP1 PUSH2 0x7CA SWAP1 PUSH2 0x11A5 JUMP JUMPDEST SWAP2 SWAP1 POP SSTORE POP PUSH1 0x1 PUSH1 0x8 PUSH1 0x0 CALLER PUSH20 0xFFFFFFFFFFFFFFFFFFFFFFFFFFFFFFFFFFFFFFFF AND PUSH20 0xFFFFFFFFFFFFFFFFFFFFFFFFFFFFFFFFFFFFFFFF AND DUP2 MSTORE PUSH1 0x20 ADD SWAP1 DUP2 MSTORE PUSH1 0x20 ADD PUSH1 0x0 KECCAK256 PUSH1 0x0 PUSH2 0x100 EXP DUP2 SLOAD DUP2 PUSH1 0xFF MUL NOT AND SWAP1 DUP4 ISZERO ISZERO MUL OR SWAP1 SSTORE POP PUSH32 0x866DC605853954FFA419910EB05D67F430EFEC2E7DB7CE135BF55565667A4AB4 CALLER DUP4 PUSH1 0x40 MLOAD PUSH2 0x858 SWAP3 SWAP2 SWAP1 PUSH2 0x1531 JUMP JUMPDEST PUSH1 0x40 MLOAD DUP1 SWAP2 SUB SWAP1 LOG1 PUSH1 0x1 SWAP1 POP PUSH2 0xA0B JUMP JUMPDEST PUSH1 0x9 DUP3 PUSH1 0x40 MLOAD PUSH2 0x879 SWAP2 SWAP1 PUSH2 0xE94 JUMP JUMPDEST SWAP1 DUP2 MSTORE PUSH1 0x20 ADD PUSH1 0x40 MLOAD DUP1 SWAP2 SUB SWAP1 KECCAK256 PUSH1 0x0 SWAP1 SLOAD SWAP1 PUSH2 0x100 EXP SWAP1 DIV PUSH1 0xFF AND PUSH2 0x8D4 JUMPI PUSH1 0x40 MLOAD PUSH32 0x8C379A000000000000000000000000000000000000000000000000000000000 DUP2 MSTORE PUSH1 0x4 ADD PUSH2 0x8CB SWAP1 PUSH2 0xEF7 JUMP JUMPDEST PUSH1 0x40 MLOAD DUP1 SWAP2 SUB SWAP1 REVERT JUMPDEST PUSH1 0x7 DUP3 PUSH1 0x40 MLOAD PUSH2 0x8E4 SWAP2 SWAP1 PUSH2 0xE94 JUMP JUMPDEST SWAP1 DUP2 MSTORE PUSH1 0x20 ADD PUSH1 0x40 MLOAD DUP1 SWAP2 SUB SWAP1 KECCAK256 PUSH1 0x0 DUP2 SLOAD DUP1 SWAP3 SWAP2 SWAP1 PUSH2 0x903 SWAP1 PUSH2 0x11A5 JUMP JUMPDEST SWAP2 SWAP1 POP SSTORE POP PUSH1 0x7 PUSH1 0x5 PUSH1 0x40 MLOAD PUSH2 0x919 SWAP2 SWAP1 PUSH2 0x1270 JUMP JUMPDEST SWAP1 DUP2 MSTORE PUSH1 0x20 ADD PUSH1 0x40 MLOAD DUP1 SWAP2 SUB SWAP1 KECCAK256 SLOAD PUSH1 0x7 DUP4 PUSH1 0x40 MLOAD PUSH2 0x938 SWAP2 SWAP1 PUSH2 0xE94 JUMP JUMPDEST SWAP1 DUP2 MSTORE PUSH1 0x20 ADD PUSH1 0x40 MLOAD DUP1 SWAP2 SUB SWAP1 KECCAK256 SLOAD LT PUSH2 0x95D JUMPI DUP2 PUSH1 0x5 SWAP1 DUP2 PUSH2 0x95B SWAP2 SWAP1 PUSH2 0x141E JUMP JUMPDEST POP JUMPDEST PUSH1 0x3 PUSH1 0x0 DUP2 SLOAD DUP1 SWAP3 SWAP2 SWAP1 PUSH2 0x970 SWAP1 PUSH2 0x11A5 JUMP JUMPDEST SWAP2 SWAP1 POP SSTORE POP PUSH1 0x1 PUSH1 0x8 PUSH1 0x0 CALLER PUSH20 0xFFFFFFFFFFFFFFFFFFFFFFFFFFFFFFFFFFFFFFFF AND PUSH20 0xFFFFFFFFFFFFFFFFFFFFFFFFFFFFFFFFFFFFFFFF AND DUP2 MSTORE PUSH1 0x20 ADD SWAP1 DUP2 MSTORE PUSH1 0x20 ADD PUSH1 0x0 KECCAK256 PUSH1 0x0 PUSH2 0x100 EXP DUP2 SLOAD DUP2 PUSH1 0xFF MUL NOT AND SWAP1 DUP4 ISZERO ISZERO MUL OR SWAP1 SSTORE POP PUSH32 0x866DC605853954FFA419910EB05D67F430EFEC2E7DB7CE135BF55565667A4AB4 CALLER DUP4 PUSH1 0x40 MLOAD PUSH2 0x9FE SWAP3 SWAP2 SWAP1 PUSH2 0x1531 JUMP JUMPDEST PUSH1 0x40 MLOAD DUP1 SWAP2 SUB SWAP1 LOG1 PUSH1 0x1 SWAP1 POP JUMPDEST SWAP2 SWAP1 POP JUMP JUMPDEST PUSH1 0x0 PUSH1 0x40 MLOAD SWAP1 POP SWAP1 JUMP JUMPDEST PUSH1 0x0 DUP1 REVERT JUMPDEST PUSH1 0x0 DUP1 REVERT JUMPDEST PUSH1 0x0 DUP1 REVERT JUMPDEST PUSH1 0x0 DUP1 REVERT JUMPDEST PUSH1 0x0 PUSH1 0x1F NOT PUSH1 0x1F DUP4 ADD AND SWAP1 POP SWAP2 SWAP1 POP JUMP JUMPDEST PUSH32 0x4E487B7100000000000000000000000000000000000000000000000000000000 PUSH1 0x0 MSTORE PUSH1 0x41 PUSH1 0x4 MSTORE PUSH1 0x24 PUSH1 0x0 REVERT JUMPDEST PUSH2 0xA77 DUP3 PUSH2 0xA2E JUMP JUMPDEST DUP2 ADD DUP2 DUP2 LT PUSH8 0xFFFFFFFFFFFFFFFF DUP3 GT OR ISZERO PUSH2 0xA96 JUMPI PUSH2 0xA95 PUSH2 0xA3F JUMP JUMPDEST JUMPDEST DUP1 PUSH1 0x40 MSTORE POP POP POP JUMP JUMPDEST PUSH1 0x0 PUSH2 0xAA9 PUSH2 0xA10 JUMP JUMPDEST SWAP1 POP PUSH2 0xAB5 DUP3 DUP3 PUSH2 0xA6E JUMP JUMPDEST SWAP2 SWAP1 POP JUMP JUMPDEST PUSH1 0x0 PUSH8 0xFFFFFFFFFFFFFFFF DUP3 GT ISZERO PUSH2 0xAD5 JUMPI PUSH2 0xAD4 PUSH2 0xA3F JUMP JUMPDEST JUMPDEST PUSH2 0xADE DUP3 PUSH2 0xA2E JUMP JUMPDEST SWAP1 POP PUSH1 0x20 DUP2 ADD SWAP1 POP SWAP2 SWAP1 POP JUMP JUMPDEST DUP3 DUP2 DUP4 CALLDATACOPY PUSH1 0x0 DUP4 DUP4 ADD MSTORE POP POP POP JUMP JUMPDEST PUSH1 0x0 PUSH2 0xB0D PUSH2 0xB08 DUP5 PUSH2 0xABA JUMP JUMPDEST PUSH2 0xA9F JUMP JUMPDEST SWAP1 POP DUP3 DUP2 MSTORE PUSH1 0x20 DUP2 ADD DUP5 DUP5 DUP5 ADD GT ISZERO PUSH2 0xB29 JUMPI PUSH2 0xB28 PUSH2 0xA29 JUMP JUMPDEST JUMPDEST PUSH2 0xB34 DUP5 DUP3 DUP6 PUSH2 0xAEB JUMP JUMPDEST POP SWAP4 SWAP3 POP POP POP JUMP JUMPDEST PUSH1 0x0 DUP3 PUSH1 0x1F DUP4 ADD SLT PUSH2 0xB51 JUMPI PUSH2 0xB50 PUSH2 0xA24 JUMP JUMPDEST JUMPDEST DUP2 CALLDATALOAD PUSH2 0xB61 DUP5 DUP3 PUSH1 0x20 DUP7 ADD PUSH2 0xAFA JUMP JUMPDEST SWAP2 POP POP SWAP3 SWAP2 POP POP JUMP JUMPDEST PUSH1 0x0 PUSH1 0x20 DUP3 DUP5 SUB SLT ISZERO PUSH2 0xB80 JUMPI PUSH2 0xB7F PUSH2 0xA1A JUMP JUMPDEST JUMPDEST PUSH1 0x0 DUP3 ADD CALLDATALOAD PUSH8 0xFFFFFFFFFFFFFFFF DUP2 GT ISZERO PUSH2 0xB9E JUMPI PUSH2 0xB9D PUSH2 0xA1F JUMP JUMPDEST JUMPDEST PUSH2 0xBAA DUP5 DUP3 DUP6 ADD PUSH2 0xB3C JUMP JUMPDEST SWAP2 POP POP SWAP3 SWAP2 POP POP JUMP JUMPDEST PUSH1 0x0 DUP2 SWAP1 POP SWAP2 SWAP1 POP JUMP JUMPDEST PUSH2 0xBC6 DUP2 PUSH2 0xBB3 JUMP JUMPDEST DUP3 MSTORE POP POP JUMP JUMPDEST PUSH1 0x0 PUSH1 0x20 DUP3 ADD SWAP1 POP PUSH2 0xBE1 PUSH1 0x0 DUP4 ADD DUP5 PUSH2 0xBBD JUMP JUMPDEST SWAP3 SWAP2 POP POP JUMP JUMPDEST PUSH1 0x0 DUP2 MLOAD SWAP1 POP SWAP2 SWAP1 POP JUMP JUMPDEST PUSH1 0x0 DUP3 DUP3 MSTORE PUSH1 0x20 DUP3 ADD SWAP1 POP SWAP3 SWAP2 POP POP JUMP JUMPDEST PUSH1 0x0 JUMPDEST DUP4 DUP2 LT ISZERO PUSH2 0xC21 JUMPI DUP1 DUP3 ADD MLOAD DUP2 DUP5 ADD MSTORE PUSH1 0x20 DUP2 ADD SWAP1 POP PUSH2 0xC06 JUMP JUMPDEST PUSH1 0x0 DUP5 DUP5 ADD MSTORE POP POP POP POP JUMP JUMPDEST PUSH1 0x0 PUSH2 0xC38 DUP3 PUSH2 0xBE7 JUMP JUMPDEST PUSH2 0xC42 DUP2 DUP6 PUSH2 0xBF2 JUMP JUMPDEST SWAP4 POP PUSH2 0xC52 DUP2 DUP6 PUSH1 0x20 DUP7 ADD PUSH2 0xC03 JUMP JUMPDEST PUSH2 0xC5B DUP2 PUSH2 0xA2E JUMP JUMPDEST DUP5 ADD SWAP2 POP POP SWAP3 SWAP2 POP POP JUMP JUMPDEST PUSH1 0x0 PUSH1 0x20 DUP3 ADD SWAP1 POP DUP2 DUP2 SUB PUSH1 0x0 DUP4 ADD MSTORE PUSH2 0xC80 DUP2 DUP5 PUSH2 0xC2D JUMP JUMPDEST SWAP1 POP SWAP3 SWAP2 POP POP JUMP JUMPDEST PUSH1 0x0 DUP2 MLOAD SWAP1 POP SWAP2 SWAP1 POP JUMP JUMPDEST PUSH1 0x0 DUP3 DUP3 MSTORE PUSH1 0x20 DUP3 ADD SWAP1 POP SWAP3 SWAP2 POP POP JUMP JUMPDEST PUSH1 0x0 DUP2 SWAP1 POP PUSH1 0x20 DUP3 ADD SWAP1 POP SWAP2 SWAP1 POP JUMP JUMPDEST PUSH1 0x0 DUP3 DUP3 MSTORE PUSH1 0x20 DUP3 ADD SWAP1 POP SWAP3 SWAP2 POP POP JUMP JUMPDEST PUSH1 0x0 PUSH2 0xCD0 DUP3 PUSH2 0xBE7 JUMP JUMPDEST PUSH2 0xCDA DUP2 DUP6 PUSH2 0xCB4 JUMP JUMPDEST SWAP4 POP PUSH2 0xCEA DUP2 DUP6 PUSH1 0x20 DUP7 ADD PUSH2 0xC03 JUMP JUMPDEST PUSH2 0xCF3 DUP2 PUSH2 0xA2E JUMP JUMPDEST DUP5 ADD SWAP2 POP POP SWAP3 SWAP2 POP POP JUMP JUMPDEST PUSH1 0x0 PUSH2 0xD0A DUP4 DUP4 PUSH2 0xCC5 JUMP JUMPDEST SWAP1 POP SWAP3 SWAP2 POP POP JUMP JUMPDEST PUSH1 0x0 PUSH1 0x20 DUP3 ADD SWAP1 POP SWAP2 SWAP1 POP JUMP JUMPDEST PUSH1 0x0 PUSH2 0xD2A DUP3 PUSH2 0xC88 JUMP JUMPDEST PUSH2 0xD34 DUP2 DUP6 PUSH2 0xC93 JUMP JUMPDEST SWAP4 POP DUP4 PUSH1 0x20 DUP3 MUL DUP6 ADD PUSH2 0xD46 DUP6 PUSH2 0xCA4 JUMP JUMPDEST DUP1 PUSH1 0x0 JUMPDEST DUP6 DUP2 LT ISZERO PUSH2 0xD82 JUMPI DUP5 DUP5 SUB DUP10 MSTORE DUP2 MLOAD PUSH2 0xD63 DUP6 DUP3 PUSH2 0xCFE JUMP JUMPDEST SWAP5 POP PUSH2 0xD6E DUP4 PUSH2 0xD12 JUMP JUMPDEST SWAP3 POP PUSH1 0x20 DUP11 ADD SWAP10 POP POP PUSH1 0x1 DUP2 ADD SWAP1 POP PUSH2 0xD4A JUMP JUMPDEST POP DUP3 SWAP8 POP DUP8 SWAP6 POP POP POP POP POP POP SWAP3 SWAP2 POP POP JUMP JUMPDEST PUSH1 0x0 PUSH1 0x20 DUP3 ADD SWAP1 POP DUP2 DUP2 SUB PUSH1 0x0 DUP4 ADD MSTORE PUSH2 0xDAE DUP2 DUP5 PUSH2 0xD1F JUMP JUMPDEST SWAP1 POP SWAP3 SWAP2 POP POP JUMP JUMPDEST PUSH1 0x0 DUP2 ISZERO ISZERO SWAP1 POP SWAP2 SWAP1 POP JUMP JUMPDEST PUSH2 0xDCB DUP2 PUSH2 0xDB6 JUMP JUMPDEST DUP3 MSTORE POP POP JUMP JUMPDEST PUSH1 0x0 PUSH1 0x20 DUP3 ADD SWAP1 POP PUSH2 0xDE6 PUSH1 0x0 DUP4 ADD DUP5 PUSH2 0xDC2 JUMP JUMPDEST SWAP3 SWAP2 POP POP JUMP JUMPDEST PUSH32 0x4F6E6C7920746865206F776E65722063616E20646F2074686973000000000000 PUSH1 0x0 DUP3 ADD MSTORE POP JUMP JUMPDEST PUSH1 0x0 PUSH2 0xE22 PUSH1 0x1A DUP4 PUSH2 0xBF2 JUMP JUMPDEST SWAP2 POP PUSH2 0xE2D DUP3 PUSH2 0xDEC JUMP JUMPDEST PUSH1 0x20 DUP3 ADD SWAP1 POP SWAP2 SWAP1 POP JUMP JUMPDEST PUSH1 0x0 PUSH1 0x20 DUP3 ADD SWAP1 POP DUP2 DUP2 SUB PUSH1 0x0 DUP4 ADD MSTORE PUSH2 0xE51 DUP2 PUSH2 0xE15 JUMP JUMPDEST SWAP1 POP SWAP2 SWAP1 POP JUMP JUMPDEST PUSH1 0x0 DUP2 SWAP1 POP SWAP3 SWAP2 POP POP JUMP JUMPDEST PUSH1 0x0 PUSH2 0xE6E DUP3 PUSH2 0xBE7 JUMP JUMPDEST PUSH2 0xE78 DUP2 DUP6 PUSH2 0xE58 JUMP JUMPDEST SWAP4 POP PUSH2 0xE88 DUP2 DUP6 PUSH1 0x20 DUP7 ADD PUSH2 0xC03 JUMP JUMPDEST DUP1 DUP5 ADD SWAP2 POP POP SWAP3 SWAP2 POP POP JUMP JUMPDEST PUSH1 0x0 PUSH2 0xEA0 DUP3 DUP5 PUSH2 0xE63 JUMP JUMPDEST SWAP2 POP DUP2 SWAP1 POP SWAP3 SWAP2 POP POP JUMP JUMPDEST PUSH32 0x4E6F7420612076616C6964206F7074696F6E0000000000000000000000000000 PUSH1 0x0 DUP3 ADD MSTORE POP JUMP JUMPDEST PUSH1 0x0 PUSH2 0xEE1 PUSH1 0x12 DUP4 PUSH2 0xBF2 JUMP JUMPDEST SWAP2 POP PUSH2 0xEEC DUP3 PUSH2 0xEAB JUMP JUMPDEST PUSH1 0x20 DUP3 ADD SWAP1 POP SWAP2 SWAP1 POP JUMP JUMPDEST PUSH1 0x0 PUSH1 0x20 DUP3 ADD SWAP1 POP DUP2 DUP2 SUB PUSH1 0x0 DUP4 ADD MSTORE PUSH2 0xF10 DUP2 PUSH2 0xED4 JUMP JUMPDEST SWAP1 POP SWAP2 SWAP1 POP JUMP JUMPDEST PUSH32 0x4E487B7100000000000000000000000000000000000000000000000000000000 PUSH1 0x0 MSTORE PUSH1 0x22 PUSH1 0x4 MSTORE PUSH1 0x24 PUSH1 0x0 REVERT JUMPDEST PUSH1 0x0 PUSH1 0x2 DUP3 DIV SWAP1 POP PUSH1 0x1 DUP3 AND DUP1 PUSH2 0xF5E JUMPI PUSH1 0x7F DUP3 AND SWAP2 POP JUMPDEST PUSH1 0x20 DUP3 LT DUP2 SUB PUSH2 0xF71 JUMPI PUSH2 0xF70 PUSH2 0xF17 JUMP JUMPDEST JUMPDEST POP SWAP2 SWAP1 POP JUMP JUMPDEST PUSH32 0x416C726561647920766F74656400000000000000000000000000000000000000 PUSH1 0x0 DUP3 ADD MSTORE POP JUMP JUMPDEST PUSH1 0x0 PUSH2 0xFAD PUSH1 0xD DUP4 PUSH2 0xBF2 JUMP JUMPDEST SWAP2 POP PUSH2 0xFB8 DUP3 PUSH2 0xF77 JUMP JUMPDEST PUSH1 0x20 DUP3 ADD SWAP1 POP SWAP2 SWAP1 POP JUMP JUMPDEST PUSH1 0x0 PUSH1 0x20 DUP3 ADD SWAP1 POP DUP2 DUP2 SUB PUSH1 0x0 DUP4 ADD MSTORE PUSH2 0xFDC DUP2 PUSH2 0xFA0 JUMP JUMPDEST SWAP1 POP SWAP2 SWAP1 POP JUMP JUMPDEST PUSH32 0x54686520636F6E74726163742069732070617573656400000000000000000000 PUSH1 0x0 DUP3 ADD MSTORE POP JUMP JUMPDEST PUSH1 0x0 PUSH2 0x1019 PUSH1 0x16 DUP4 PUSH2 0xBF2 JUMP JUMPDEST SWAP2 POP PUSH2 0x1024 DUP3 PUSH2 0xFE3 JUMP JUMPDEST PUSH1 0x20 DUP3 ADD SWAP1 POP SWAP2 SWAP1 POP JUMP JUMPDEST PUSH1 0x0 PUSH1 0x20 DUP3 ADD SWAP1 POP DUP2 DUP2 SUB PUSH1 0x0 DUP4 ADD MSTORE PUSH2 0x1048 DUP2 PUSH2 0x100C JUMP JUMPDEST SWAP1 POP SWAP2 SWAP1 POP JUMP JUMPDEST PUSH1 0x0 DUP2 SWAP1 POP DUP2 PUSH1 0x0 MSTORE PUSH1 0x20 PUSH1 0x0 KECCAK256 SWAP1 POP SWAP2 SWAP1 POP JUMP JUMPDEST PUSH1 0x0 DUP2 SLOAD PUSH2 0x1071 DUP2 PUSH2 0xF46 JUMP JUMPDEST PUSH2 0x107B DUP2 DUP7 PUSH2 0xBF2 JUMP JUMPDEST SWAP5 POP PUSH1 0x1 DUP3 AND PUSH1 0x0 DUP2 EQ PUSH2 0x1096 JUMPI PUSH1 0x1 DUP2 EQ PUSH2 0x10AC JUMPI PUSH2 0x10DF JUMP JUMPDEST PUSH1 0xFF NOT DUP4 AND DUP7 MSTORE DUP2 ISZERO ISZERO PUSH1 0x20 MUL DUP7 ADD SWAP4 POP PUSH2 0x10DF JUMP JUMPDEST PUSH2 0x10B5 DUP6 PUSH2 0x104F JUMP JUMPDEST PUSH1 0x0 JUMPDEST DUP4 DUP2 LT ISZERO PUSH2 0x10D7 JUMPI DUP2 SLOAD DUP2 DUP10 ADD MSTORE PUSH1 0x1 DUP3 ADD SWAP2 POP PUSH1 0x20 DUP2 ADD SWAP1 POP PUSH2 0x10B8 JUMP JUMPDEST DUP1 DUP9 ADD SWAP6 POP POP POP JUMPDEST POP POP POP SWAP3 SWAP2 POP POP JUMP JUMPDEST PUSH1 0x0 PUSH1 0x20 DUP3 ADD SWAP1 POP DUP2 DUP2 SUB PUSH1 0x0 DUP4 ADD MSTORE PUSH2 0x1102 DUP2 DUP5 PUSH2 0x1064 JUMP JUMPDEST SWAP1 POP SWAP3 SWAP2 POP POP JUMP JUMPDEST PUSH32 0x54686520706F6C6C2068617320656E6465640000000000000000000000000000 PUSH1 0x0 DUP3 ADD MSTORE POP JUMP JUMPDEST PUSH1 0x0 PUSH2 0x1140 PUSH1 0x12 DUP4 PUSH2 0xBF2 JUMP JUMPDEST SWAP2 POP PUSH2 0x114B DUP3 PUSH2 0x110A JUMP JUMPDEST PUSH1 0x20 DUP3 ADD SWAP1 POP SWAP2 SWAP1 POP JUMP JUMPDEST PUSH1 0x0 PUSH1 0x20 DUP3 ADD SWAP1 POP DUP2 DUP2 SUB PUSH1 0x0 DUP4 ADD MSTORE PUSH2 0x116F DUP2 PUSH2 0x1133 JUMP JUMPDEST SWAP1 POP SWAP2 SWAP1 POP JUMP JUMPDEST PUSH32 0x4E487B7100000000000000000000000000000000000000000000000000000000 PUSH1 0x0 MSTORE PUSH1 0x11 PUSH1 0x4 MSTORE PUSH1 0x24 PUSH1 0x0 REVERT JUMPDEST PUSH1 0x0 PUSH2 0x11B0 DUP3 PUSH2 0xBB3 JUMP JUMPDEST SWAP2 POP PUSH32 0xFFFFFFFFFFFFFFFFFFFFFFFFFFFFFFFFFFFFFFFFFFFFFFFFFFFFFFFFFFFFFFFF DUP3 SUB PUSH2 0x11E2 JUMPI PUSH2 0x11E1 PUSH2 0x1176 JUMP JUMPDEST JUMPDEST PUSH1 0x1 DUP3 ADD SWAP1 POP SWAP2 SWAP1 POP JUMP JUMPDEST PUSH1 0x0 DUP2 SLOAD PUSH2 0x11FA DUP2 PUSH2 0xF46 JUMP JUMPDEST PUSH2 0x1204 DUP2 DUP7 PUSH2 0xE58 JUMP JUMPDEST SWAP5 POP PUSH1 0x1 DUP3 AND PUSH1 0x0 DUP2 EQ PUSH2 0x121F JUMPI PUSH1 0x1 DUP2 EQ PUSH2 0x1234 JUMPI PUSH2 0x1267 JUMP JUMPDEST PUSH1 0xFF NOT DUP4 AND DUP7 MSTORE DUP2 ISZERO ISZERO DUP3 MUL DUP7 ADD SWAP4 POP PUSH2 0x1267 JUMP JUMPDEST PUSH2 0x123D DUP6 PUSH2 0x104F JUMP JUMPDEST PUSH1 0x0 JUMPDEST DUP4 DUP2 LT ISZERO PUSH2 0x125F JUMPI DUP2 SLOAD DUP2 DUP10 ADD MSTORE PUSH1 0x1 DUP3 ADD SWAP2 POP PUSH1 0x20 DUP2 ADD SWAP1 POP PUSH2 0x1240 JUMP JUMPDEST DUP4 DUP9 ADD SWAP6 POP POP POP JUMPDEST POP POP POP SWAP3 SWAP2 POP POP JUMP JUMPDEST PUSH1 0x0 PUSH2 0x127C DUP3 DUP5 PUSH2 0x11ED JUMP JUMPDEST SWAP2 POP DUP2 SWAP1 POP SWAP3 SWAP2 POP POP JUMP JUMPDEST PUSH1 0x0 PUSH1 0x20 PUSH1 0x1F DUP4 ADD DIV SWAP1 POP SWAP2 SWAP1 POP JUMP JUMPDEST PUSH1 0x0 DUP3 DUP3 SHL SWAP1 POP SWAP3 SWAP2 POP POP JUMP JUMPDEST PUSH1 0x0 PUSH1 0x8 DUP4 MUL PUSH2 0x12D4 PUSH32 0xFFFFFFFFFFFFFFFFFFFFFFFFFFFFFFFFFFFFFFFFFFFFFFFFFFFFFFFFFFFFFFFF DUP3 PUSH2 0x1297 JUMP JUMPDEST PUSH2 0x12DE DUP7 DUP4 PUSH2 0x1297 JUMP JUMPDEST SWAP6 POP DUP1 NOT DUP5 AND SWAP4 POP DUP1 DUP7 AND DUP5 OR SWAP3 POP POP POP SWAP4 SWAP3 POP POP POP JUMP JUMPDEST PUSH1 0x0 DUP2 SWAP1 POP SWAP2 SWAP1 POP JUMP JUMPDEST PUSH1 0x0 PUSH2 0x131B PUSH2 0x1316 PUSH2 0x1311 DUP5 PUSH2 0xBB3 JUMP JUMPDEST PUSH2 0x12F6 JUMP JUMPDEST PUSH2 0xBB3 JUMP JUMPDEST SWAP1 POP SWAP2 SWAP1 POP JUMP JUMPDEST PUSH1 0x0 DUP2 SWAP1 POP SWAP2 SWAP1 POP JUMP JUMPDEST PUSH2 0x1335 DUP4 PUSH2 0x1300 JUMP JUMPDEST PUSH2 0x1349 PUSH2 0x1341 DUP3 PUSH2 0x1322 JUMP JUMPDEST DUP5 DUP5 SLOAD PUSH2 0x12A4 JUMP JUMPDEST DUP3 SSTORE POP POP POP POP JUMP JUMPDEST PUSH1 0x0 SWAP1 JUMP JUMPDEST PUSH2 0x135E PUSH2 0x1351 JUMP JUMPDEST PUSH2 0x1369 DUP2 DUP5 DUP5 PUSH2 0x132C JUMP JUMPDEST POP POP POP JUMP JUMPDEST JUMPDEST DUP2 DUP2 LT ISZERO PUSH2 0x138D JUMPI PUSH2 0x1382 PUSH1 0x0 DUP3 PUSH2 0x1356 JUMP JUMPDEST PUSH1 0x1 DUP2 ADD SWAP1 POP PUSH2 0x136F JUMP JUMPDEST POP POP JUMP JUMPDEST PUSH1 0x1F DUP3 GT ISZERO PUSH2 0x13D2 JUMPI PUSH2 0x13A3 DUP2 PUSH2 0x104F JUMP JUMPDEST PUSH2 0x13AC DUP5 PUSH2 0x1287 JUMP JUMPDEST DUP2 ADD PUSH1 0x20 DUP6 LT ISZERO PUSH2 0x13BB JUMPI DUP2 SWAP1 POP JUMPDEST PUSH2 0x13CF PUSH2 0x13C7 DUP6 PUSH2 0x1287 JUMP JUMPDEST DUP4 ADD DUP3 PUSH2 0x136E JUMP JUMPDEST POP POP JUMPDEST POP POP POP JUMP JUMPDEST PUSH1 0x0 DUP3 DUP3 SHR SWAP1 POP SWAP3 SWAP2 POP POP JUMP JUMPDEST PUSH1 0x0 PUSH2 0x13F5 PUSH1 0x0 NOT DUP5 PUSH1 0x8 MUL PUSH2 0x13D7 JUMP JUMPDEST NOT DUP1 DUP4 AND SWAP2 POP POP SWAP3 SWAP2 POP POP JUMP JUMPDEST PUSH1 0x0 PUSH2 0x140E DUP4 DUP4 PUSH2 0x13E4 JUMP JUMPDEST SWAP2 POP DUP3 PUSH1 0x2 MUL DUP3 OR SWAP1 POP SWAP3 SWAP2 POP POP JUMP JUMPDEST PUSH2 0x1427 DUP3 PUSH2 0xBE7 JUMP JUMPDEST PUSH8 0xFFFFFFFFFFFFFFFF DUP2 GT ISZERO PUSH2 0x1440 JUMPI PUSH2 0x143F PUSH2 0xA3F JUMP JUMPDEST JUMPDEST PUSH2 0x144A DUP3 SLOAD PUSH2 0xF46 JUMP JUMPDEST PUSH2 0x1455 DUP3 DUP3 DUP6 PUSH2 0x1391 JUMP JUMPDEST PUSH1 0x0 PUSH1 0x20 SWAP1 POP PUSH1 0x1F DUP4 GT PUSH1 0x1 DUP2 EQ PUSH2 0x1488 JUMPI PUSH1 0x0 DUP5 ISZERO PUSH2 0x1476 JUMPI DUP3 DUP8 ADD MLOAD SWAP1 POP JUMPDEST PUSH2 0x1480 DUP6 DUP3 PUSH2 0x1402 JUMP JUMPDEST DUP7 SSTORE POP PUSH2 0x14E8 JUMP JUMPDEST PUSH1 0x1F NOT DUP5 AND PUSH2 0x1496 DUP7 PUSH2 0x104F JUMP JUMPDEST PUSH1 0x0 JUMPDEST DUP3 DUP2 LT ISZERO PUSH2 0x14BE JUMPI DUP5 DUP10 ADD MLOAD DUP3 SSTORE PUSH1 0x1 DUP3 ADD SWAP2 POP PUSH1 0x20 DUP6 ADD SWAP5 POP PUSH1 0x20 DUP2 ADD SWAP1 POP PUSH2 0x1499 JUMP JUMPDEST DUP7 DUP4 LT ISZERO PUSH2 0x14DB JUMPI DUP5 DUP10 ADD MLOAD PUSH2 0x14D7 PUSH1 0x1F DUP10 AND DUP3 PUSH2 0x13E4 JUMP JUMPDEST DUP4 SSTORE POP JUMPDEST PUSH1 0x1 PUSH1 0x2 DUP9 MUL ADD DUP9 SSTORE POP POP POP JUMPDEST POP POP POP POP POP POP JUMP JUMPDEST PUSH1 0x0 PUSH20 0xFFFFFFFFFFFFFFFFFFFFFFFFFFFFFFFFFFFFFFFF DUP3 AND SWAP1 POP SWAP2 SWAP1 POP JUMP JUMPDEST PUSH1 0x0 PUSH2 0x151B DUP3 PUSH2 0x14F0 JUMP JUMPDEST SWAP1 POP SWAP2 SWAP1 POP JUMP JUMPDEST PUSH2 0x152B DUP2 PUSH2 0x1510 JUMP JUMPDEST DUP3 MSTORE POP POP JUMP JUMPDEST PUSH1 0x0 PUSH1 0x40 DUP3 ADD SWAP1 POP PUSH2 0x1546 PUSH1 0x0 DUP4 ADD DUP6 PUSH2 0x1522 JUMP JUMPDEST DUP2 DUP2 SUB PUSH1 0x20 DUP4 ADD MSTORE PUSH2 0x1558 DUP2 DUP5 PUSH2 0xC2D JUMP JUMPDEST SWAP1 POP SWAP4 SWAP3 POP POP POP JUMP INVALID LOG2 PUSH5 0x6970667358 0x22 SLT KECCAK256 0x5E PUSH10 0xC01D8343F412F5E8F8D1 0x5F 0xCF 0xB5 SWAP8 0x5E DUP12 PUSH6 0x48949DA2808E 0xE7 PUSH22 0xF9F957694B64736F6C63430008130033000000000000 "},"methodIdentifiers":{"changePauseState()":"46e79ffc","getOptions()":"cc2ee196","getQuestion()":"eff38f92","getTotalOptions()":"b2db3503","getTotalVotes()":"9a0e7d66","getVotes(string)":"805265e5","getWinner()":"8e7ea5b2","vote(string)":"fc36e15b"}}}}}