{
  "_format": "hh-sol-artifact-1",
  "contractName": "PollFactory",
  "sourceName": "contracts/Voting.sol",
  "abi": [
    {
      "inputs": [],
      "stateMutability": "nonpayable",
      "type": "constructor"
    },
    {
      "anonymous": false,
      "inputs": [
        {
          "indexed": false,
          "internalType": "address",
          "name": "pollAddress",
          "type": "address"
        }
      ],
      "name": "PollCreated",
      "type": "event"
    },
    {
      "stateMutability": "payable",
      "type": "fallback"
    },
    {
      "inputs": [
        {
          "internalType": "uint256",
          "name": "_index",
          "type": "uint256"
        }
      ],
      "name": "getPoll",
      "outputs": [
        {
          "internalType": "contract Poll",
          "name": "",
          "type": "address"
        }
      ],
      "stateMutability": "view",
      "type": "function"
    },
    {
      "inputs": [],
      "name": "getPolls",
      "outputs": [
        {
          "internalType": "contract Poll[]",
          "name": "",
          "type": "address[]"
        }
      ],
      "stateMutability": "view",
      "type": "function"
    },
    {
      "inputs": [],
      "name": "getPollsLength",
      "outputs": [
        {
          "internalType": "uint256",
          "name": "",
          "type": "uint256"
        }
      ],
      "stateMutability": "view",
      "type": "function"
    },
    {
      "inputs": [
        {
          "internalType": "string",
          "name": "_question",
          "type": "string"
        },
        {
          "internalType": "string[]",
          "name": "_options",
          "type": "string[]"
        },
        {
          "internalType": "uint256",
          "name": "_timelock",
          "type": "uint256"
        }
      ],
      "name": "makePoll",
      "outputs": [
        {
          "internalType": "address",
          "name": "",
          "type": "address"
        }
      ],
      "stateMutability": "nonpayable",
      "type": "function"
    },
    {
      "inputs": [
        {
          "internalType": "uint256",
          "name": "",
          "type": "uint256"
        }
      ],
      "name": "polls",
      "outputs": [
        {
          "internalType": "contract Poll",
          "name": "",
          "type": "address"
        }
      ],
      "stateMutability": "view",
      "type": "function"
    },
    {
      "stateMutability": "payable",
      "type": "receive"
    }
  ],
  "bytecode": "0x608060405234801561001057600080fd5b50612f2e806100206000396000f3fe608060405260043610620000555760003560e01c8063120fe89b14620000e15780631a8cbcaa1462000111578063696982451462000155578063ac2f00741462000199578063d4f0ca1f14620001dd576200009e565b366200009e576200009c6040518060400160405280600e81526020017f2d2d2d2d2d20726563656976653a000000000000000000000000000000000000815250346200020d565b005b620000df6040518060400160405280600f81526020017f2d2d2d2d2d2066616c6c6261636b3a0000000000000000000000000000000000815250346200020d565b005b348015620000ee57600080fd5b50620000f9620002ad565b6040516200010891906200074a565b60405180910390f35b3480156200011e57600080fd5b506200013d6004803603810190620001379190620007bd565b6200033d565b6040516200014c919062000800565b60405180910390f35b3480156200016257600080fd5b506200018160048036038101906200017b919062000a7b565b62000387565b60405162000190919062000b3a565b60405180910390f35b348015620001a657600080fd5b50620001c56004803603810190620001bf9190620007bd565b620004b1565b604051620001d4919062000800565b60405180910390f35b348015620001ea57600080fd5b50620001f5620004f1565b60405162000204919062000b68565b60405180910390f35b620002a982826040516024016200022692919062000c0e565b6040516020818303038152906040527fb60e72cc000000000000000000000000000000000000000000000000000000007bffffffffffffffffffffffffffffffffffffffffffffffffffffffff19166020820180517bffffffffffffffffffffffffffffffffffffffffffffffffffffffff8381831617835250505050620004fd565b5050565b606060008054806020026020016040519081016040528092919081815260200182805480156200033357602002820191906000526020600020905b8160009054906101000a900473ffffffffffffffffffffffffffffffffffffffff1673ffffffffffffffffffffffffffffffffffffffff1681526020019060010190808311620002e8575b5050505050905090565b600080828154811062000355576200035462000c42565b5b9060005260206000200160009054906101000a900473ffffffffffffffffffffffffffffffffffffffff169050919050565b6000808484846040516200039b90620005e8565b620003a99392919062000d93565b604051809103906000f080158015620003c6573d6000803e3d6000fd5b5090506000819080600181540180825580915050600190039060005260206000200160009091909190916101000a81548173ffffffffffffffffffffffffffffffffffffffff021916908373ffffffffffffffffffffffffffffffffffffffff1602179055507fa0cf16a3368210e542e588541dc11d0cf5d550130f310e8ef2b87508db3f0c3e816040516200045d919062000b3a565b60405180910390a1620004a66040518060400160405280600b81526020017f2d2d2d2d2d20706f6c6c3a000000000000000000000000000000000000000000815250826200051b565b809150509392505050565b60008181548110620004c257600080fd5b906000526020600020016000915054906101000a900473ffffffffffffffffffffffffffffffffffffffff1681565b60008080549050905090565b620005188162000510620005bb620005dc565b63ffffffff16565b50565b620005b782826040516024016200053492919062000dde565b6040516020818303038152906040527f319af333000000000000000000000000000000000000000000000000000000007bffffffffffffffffffffffffffffffffffffffffffffffffffffffff19166020820180517bffffffffffffffffffffffffffffffffffffffffffffffffffffffff8381831617835250505050620004fd565b5050565b60006a636f6e736f6c652e6c6f679050600080835160208501845afa505050565b620005f6819050919050565b6120b78062000e4283390190565b6200060062000e12565b565b600081519050919050565b600082825260208201905092915050565b6000819050602082019050919050565b600073ffffffffffffffffffffffffffffffffffffffff82169050919050565b6000819050919050565b600062000679620006736200066d846200062e565b6200064e565b6200062e565b9050919050565b60006200068d8262000658565b9050919050565b6000620006a18262000680565b9050919050565b620006b38162000694565b82525050565b6000620006c78383620006a8565b60208301905092915050565b6000602082019050919050565b6000620006ed8262000602565b620006f981856200060d565b935062000706836200061e565b8060005b838110156200073d578151620007218882620006b9565b97506200072e83620006d3565b9250506001810190506200070a565b5085935050505092915050565b60006020820190508181036000830152620007668184620006e0565b905092915050565b6000604051905090565b600080fd5b600080fd5b6000819050919050565b620007978162000782565b8114620007a357600080fd5b50565b600081359050620007b7816200078c565b92915050565b600060208284031215620007d657620007d562000778565b5b6000620007e684828501620007a6565b91505092915050565b620007fa8162000694565b82525050565b6000602082019050620008176000830184620007ef565b92915050565b600080fd5b600080fd5b6000601f19601f8301169050919050565b7f4e487b7100000000000000000000000000000000000000000000000000000000600052604160045260246000fd5b620008728262000827565b810181811067ffffffffffffffff8211171562000894576200089362000838565b5b80604052505050565b6000620008a96200076e565b9050620008b7828262000867565b919050565b600067ffffffffffffffff821115620008da57620008d962000838565b5b620008e58262000827565b9050602081019050919050565b82818337600083830152505050565b6000620009186200091284620008bc565b6200089d565b90508281526020810184848401111562000937576200093662000822565b5b62000944848285620008f2565b509392505050565b600082601f8301126200096457620009636200081d565b5b81356200097684826020860162000901565b91505092915050565b600067ffffffffffffffff8211156200099d576200099c62000838565b5b602082029050602081019050919050565b600080fd5b6000620009ca620009c4846200097f565b6200089d565b90508083825260208201905060208402830185811115620009f057620009ef620009ae565b5b835b8181101562000a3e57803567ffffffffffffffff81111562000a195762000a186200081d565b5b80860162000a2889826200094c565b85526020850194505050602081019050620009f2565b5050509392505050565b600082601f83011262000a605762000a5f6200081d565b5b813562000a72848260208601620009b3565b91505092915050565b60008060006060848603121562000a975762000a9662000778565b5b600084013567ffffffffffffffff81111562000ab85762000ab76200077d565b5b62000ac6868287016200094c565b935050602084013567ffffffffffffffff81111562000aea5762000ae96200077d565b5b62000af88682870162000a48565b925050604062000b0b86828701620007a6565b9150509250925092565b600062000b22826200062e565b9050919050565b62000b348162000b15565b82525050565b600060208201905062000b51600083018462000b29565b92915050565b62000b628162000782565b82525050565b600060208201905062000b7f600083018462000b57565b92915050565b600081519050919050565b600082825260208201905092915050565b60005b8381101562000bc157808201518184015260208101905062000ba4565b60008484015250505050565b600062000bda8262000b85565b62000be6818562000b90565b935062000bf881856020860162000ba1565b62000c038162000827565b840191505092915050565b6000604082019050818103600083015262000c2a818562000bcd565b905062000c3b602083018462000b57565b9392505050565b7f4e487b7100000000000000000000000000000000000000000000000000000000600052603260045260246000fd5b600081519050919050565b600082825260208201905092915050565b6000819050602082019050919050565b600082825260208201905092915050565b600062000cbb8262000b85565b62000cc7818562000c9d565b935062000cd981856020860162000ba1565b62000ce48162000827565b840191505092915050565b600062000cfd838362000cae565b905092915050565b6000602082019050919050565b600062000d1f8262000c71565b62000d2b818562000c7c565b93508360208202850162000d3f8562000c8d565b8060005b8581101562000d81578484038952815162000d5f858262000cef565b945062000d6c8362000d05565b925060208a0199505060018101905062000d43565b50829750879550505050505092915050565b6000606082019050818103600083015262000daf818662000bcd565b9050818103602083015262000dc5818562000d12565b905062000dd6604083018462000b57565b949350505050565b6000604082019050818103600083015262000dfa818562000bcd565b905062000e0b602083018462000b29565b9392505050565b7f4e487b7100000000000000000000000000000000000000000000000000000000600052605160045260246000fdfe608060405260008060146101000a81548160ff0219169083151502179055503480156200002b57600080fd5b50604051620020b7380380620020b7833981810160405281019062000051919062000564565b60208251111562000099576040517f08c379a0000000000000000000000000000000000000000000000000000000008152600401620000909062000685565b60405180910390fd5b336000806101000a81548173ffffffffffffffffffffffffffffffffffffffff021916908373ffffffffffffffffffffffffffffffffffffffff1602179055508160029080519060200190620000f1929190620001ad565b508260019081620001039190620008e8565b5060008114620001225780426200011b9190620009fe565b6006819055505b815160048190555060005b8251811015620001a3576001600984838151811062000151576200015062000a39565b5b602002602001015160405162000168919062000aaa565b908152602001604051809103902060006101000a81548160ff02191690831515021790555080806200019a9062000ac3565b9150506200012d565b5050505062000b10565b828054828255906000526020600020908101928215620001fa579160200282015b82811115620001f9578251829081620001e89190620008e8565b5091602001919060010190620001ce565b5b5090506200020991906200020d565b5090565b5b8082111562000231576000818162000227919062000235565b506001016200020e565b5090565b5080546200024390620006e1565b6000825580601f1062000257575062000278565b601f0160209004906000526020600020908101906200027791906200027b565b5b50565b5b80821115620002965760008160009055506001016200027c565b5090565b6000604051905090565b600080fd5b600080fd5b600080fd5b600080fd5b6000601f19601f8301169050919050565b7f4e487b7100000000000000000000000000000000000000000000000000000000600052604160045260246000fd5b6200030382620002b8565b810181811067ffffffffffffffff82111715620003255762000324620002c9565b5b80604052505050565b60006200033a6200029a565b9050620003488282620002f8565b919050565b600067ffffffffffffffff8211156200036b576200036a620002c9565b5b6200037682620002b8565b9050602081019050919050565b60005b83811015620003a357808201518184015260208101905062000386565b60008484015250505050565b6000620003c6620003c0846200034d565b6200032e565b905082815260208101848484011115620003e557620003e4620002b3565b5b620003f284828562000383565b509392505050565b600082601f830112620004125762000411620002ae565b5b815162000424848260208601620003af565b91505092915050565b600067ffffffffffffffff8211156200044b576200044a620002c9565b5b602082029050602081019050919050565b600080fd5b60006200047862000472846200042d565b6200032e565b905080838252602082019050602084028301858111156200049e576200049d6200045c565b5b835b81811015620004ec57805167ffffffffffffffff811115620004c757620004c6620002ae565b5b808601620004d68982620003fa565b85526020850194505050602081019050620004a0565b5050509392505050565b600082601f8301126200050e576200050d620002ae565b5b81516200052084826020860162000461565b91505092915050565b6000819050919050565b6200053e8162000529565b81146200054a57600080fd5b50565b6000815190506200055e8162000533565b92915050565b60008060006060848603121562000580576200057f620002a4565b5b600084015167ffffffffffffffff811115620005a157620005a0620002a9565b5b620005af86828701620003fa565b935050602084015167ffffffffffffffff811115620005d357620005d2620002a9565b5b620005e186828701620004f6565b9250506040620005f4868287016200054d565b9150509250925092565b600082825260208201905092915050565b7f4120706f6c6c2063616e206e6f742068617665206d6f7265207468616e20333260008201527f206f7074696f6e73000000000000000000000000000000000000000000000000602082015250565b60006200066d602883620005fe565b91506200067a826200060f565b604082019050919050565b60006020820190508181036000830152620006a0816200065e565b9050919050565b600081519050919050565b7f4e487b7100000000000000000000000000000000000000000000000000000000600052602260045260246000fd5b60006002820490506001821680620006fa57607f821691505b60208210810362000710576200070f620006b2565b5b50919050565b60008190508160005260206000209050919050565b60006020601f8301049050919050565b600082821b905092915050565b6000600883026200077a7fffffffffffffffffffffffffffffffffffffffffffffffffffffffffffffffff826200073b565b6200078686836200073b565b95508019841693508086168417925050509392505050565b6000819050919050565b6000620007c9620007c3620007bd8462000529565b6200079e565b62000529565b9050919050565b6000819050919050565b620007e583620007a8565b620007fd620007f482620007d0565b84845462000748565b825550505050565b600090565b6200081462000805565b62000821818484620007da565b505050565b5b8181101562000849576200083d6000826200080a565b60018101905062000827565b5050565b601f8211156200089857620008628162000716565b6200086d846200072b565b810160208510156200087d578190505b620008956200088c856200072b565b83018262000826565b50505b505050565b600082821c905092915050565b6000620008bd600019846008026200089d565b1980831691505092915050565b6000620008d88383620008aa565b9150826002028217905092915050565b620008f382620006a7565b67ffffffffffffffff8111156200090f576200090e620002c9565b5b6200091b8254620006e1565b620009288282856200084d565b600060209050601f8311600181146200096057600084156200094b578287015190505b620009578582620008ca565b865550620009c7565b601f198416620009708662000716565b60005b828110156200099a5784890151825560018201915060208501945060208101905062000973565b86831015620009ba5784890151620009b6601f891682620008aa565b8355505b6001600288020188555050505b505050505050565b7f4e487b7100000000000000000000000000000000000000000000000000000000600052601160045260246000fd5b600062000a0b8262000529565b915062000a188362000529565b925082820190508082111562000a335762000a32620009cf565b5b92915050565b7f4e487b7100000000000000000000000000000000000000000000000000000000600052603260045260246000fd5b600081905092915050565b600062000a8082620006a7565b62000a8c818562000a68565b935062000a9e81856020860162000383565b80840191505092915050565b600062000ab8828462000a73565b915081905092915050565b600062000ad08262000529565b91507fffffffffffffffffffffffffffffffffffffffffffffffffffffffffffffffff820362000b055762000b04620009cf565b5b600182019050919050565b6115978062000b206000396000f3fe608060405234801561001057600080fd5b50600436106100885760003560e01c8063b2db35031161005b578063b2db350314610103578063cc2ee19614610121578063eff38f921461013f578063fc36e15b1461015d57610088565b806346e79ffc1461008d578063805265e5146100975780638e7ea5b2146100c75780639a0e7d66146100e5575b600080fd5b61009561018d565b005b6100b160048036038101906100ac9190610b6a565b6102ba565b6040516100be9190610bcc565b60405180910390f35b6100cf61034d565b6040516100dc9190610c66565b60405180910390f35b6100ed6103df565b6040516100fa9190610bcc565b60405180910390f35b61010b6103e9565b6040516101189190610bcc565b60405180910390f35b6101296103f3565b6040516101369190610d94565b60405180910390f35b6101476104cc565b6040516101549190610c66565b60405180910390f35b61017760048036038101906101729190610b6a565b61055e565b6040516101849190610dd1565b60405180910390f35b60008054906101000a900473ffffffffffffffffffffffffffffffffffffffff1673ffffffffffffffffffffffffffffffffffffffff163373ffffffffffffffffffffffffffffffffffffffff161461021b576040517f08c379a000000000000000000000000000000000000000000000000000000000815260040161021290610e38565b60405180910390fd5b600060149054906101000a900460ff1615610261577f3c24483b1a54daf2fdb8b301d327e5f87a37721eba6c3e37084a1ffc9ad83c3e60405160405180910390a161028e565b7f8d1879e4a6c38fc7a185f585f2edec4cc9560a351d67371bc56a912603a0219360405160405180910390a15b600060149054906101000a900460ff1615600060146101000a81548160ff021916908315150217905550565b60006009826040516102cc9190610e94565b908152602001604051809103902060009054906101000a900460ff16610327576040517f08c379a000000000000000000000000000000000000000000000000000000000815260040161031e90610ef7565b60405180910390fd5b6007826040516103379190610e94565b9081526020016040518091039020549050919050565b60606005805461035c90610f46565b80601f016020809104026020016040519081016040528092919081815260200182805461038890610f46565b80156103d55780601f106103aa576101008083540402835291602001916103d5565b820191906000526020600020905b8154815290600101906020018083116103b857829003601f168201915b5050505050905090565b6000600354905090565b6000600454905090565b60606002805480602002602001604051908101604052809291908181526020016000905b828210156104c357838290600052602060002001805461043690610f46565b80601f016020809104026020016040519081016040528092919081815260200182805461046290610f46565b80156104af5780601f10610484576101008083540402835291602001916104af565b820191906000526020600020905b81548152906001019060200180831161049257829003601f168201915b505050505081526020019060010190610417565b50505050905090565b6060600180546104db90610f46565b80601f016020809104026020016040519081016040528092919081815260200182805461050790610f46565b80156105545780601f1061052957610100808354040283529160200191610554565b820191906000526020600020905b81548152906001019060200180831161053757829003601f168201915b5050505050905090565b6000600860003373ffffffffffffffffffffffffffffffffffffffff1673ffffffffffffffffffffffffffffffffffffffff16815260200190815260200160002060009054906101000a900460ff16156105ed576040517f08c379a00000000000000000000000000000000000000000000000000000000081526004016105e490610fc3565b60405180910390fd5b600060149054906101000a900460ff161561063d576040517f08c379a00000000000000000000000000000000000000000000000000000000081526004016106349061102f565b60405180910390fd5b600060065414610869577f35b19081975ea7023b694708fbe0226138af41ff25a1b73420cc13026bd477be600560405161067791906110e8565b60405180910390a160065442106106c3576040517f08c379a00000000000000000000000000000000000000000000000000000000081526004016106ba90611156565b60405180910390fd5b6009826040516106d39190610e94565b908152602001604051809103902060009054906101000a900460ff1661072e576040517f08c379a000000000000000000000000000000000000000000000000000000000815260040161072590610ef7565b60405180910390fd5b60078260405161073e9190610e94565b9081526020016040518091039020600081548092919061075d906111a5565b9190505550600760056040516107739190611270565b9081526020016040518091039020546007836040516107929190610e94565b908152602001604051809103902054106107b75781600590816107b5919061141e565b505b600360008154809291906107ca906111a5565b91905055506001600860003373ffffffffffffffffffffffffffffffffffffffff1673ffffffffffffffffffffffffffffffffffffffff16815260200190815260200160002060006101000a81548160ff0219169083151502179055507f866dc605853954ffa419910eb05d67f430efec2e7db7ce135bf55565667a4ab43383604051610858929190611531565b60405180910390a160019050610a0b565b6009826040516108799190610e94565b908152602001604051809103902060009054906101000a900460ff166108d4576040517f08c379a00000000000000000000000000000000000000000000000000000000081526004016108cb90610ef7565b60405180910390fd5b6007826040516108e49190610e94565b90815260200160405180910390206000815480929190610903906111a5565b9190505550600760056040516109199190611270565b9081526020016040518091039020546007836040516109389190610e94565b9081526020016040518091039020541061095d57816005908161095b919061141e565b505b60036000815480929190610970906111a5565b91905055506001600860003373ffffffffffffffffffffffffffffffffffffffff1673ffffffffffffffffffffffffffffffffffffffff16815260200190815260200160002060006101000a81548160ff0219169083151502179055507f866dc605853954ffa419910eb05d67f430efec2e7db7ce135bf55565667a4ab433836040516109fe929190611531565b60405180910390a1600190505b919050565b6000604051905090565b600080fd5b600080fd5b600080fd5b600080fd5b6000601f19601f8301169050919050565b7f4e487b7100000000000000000000000000000000000000000000000000000000600052604160045260246000fd5b610a7782610a2e565b810181811067ffffffffffffffff82111715610a9657610a95610a3f565b5b80604052505050565b6000610aa9610a10565b9050610ab58282610a6e565b919050565b600067ffffffffffffffff821115610ad557610ad4610a3f565b5b610ade82610a2e565b9050602081019050919050565b82818337600083830152505050565b6000610b0d610b0884610aba565b610a9f565b905082815260208101848484011115610b2957610b28610a29565b5b610b34848285610aeb565b509392505050565b600082601f830112610b5157610b50610a24565b5b8135610b61848260208601610afa565b91505092915050565b600060208284031215610b8057610b7f610a1a565b5b600082013567ffffffffffffffff811115610b9e57610b9d610a1f565b5b610baa84828501610b3c565b91505092915050565b6000819050919050565b610bc681610bb3565b82525050565b6000602082019050610be16000830184610bbd565b92915050565b600081519050919050565b600082825260208201905092915050565b60005b83811015610c21578082015181840152602081019050610c06565b60008484015250505050565b6000610c3882610be7565b610c428185610bf2565b9350610c52818560208601610c03565b610c5b81610a2e565b840191505092915050565b60006020820190508181036000830152610c808184610c2d565b905092915050565b600081519050919050565b600082825260208201905092915050565b6000819050602082019050919050565b600082825260208201905092915050565b6000610cd082610be7565b610cda8185610cb4565b9350610cea818560208601610c03565b610cf381610a2e565b840191505092915050565b6000610d0a8383610cc5565b905092915050565b6000602082019050919050565b6000610d2a82610c88565b610d348185610c93565b935083602082028501610d4685610ca4565b8060005b85811015610d825784840389528151610d638582610cfe565b9450610d6e83610d12565b925060208a01995050600181019050610d4a565b50829750879550505050505092915050565b60006020820190508181036000830152610dae8184610d1f565b905092915050565b60008115159050919050565b610dcb81610db6565b82525050565b6000602082019050610de66000830184610dc2565b92915050565b7f4f6e6c7920746865206f776e65722063616e20646f2074686973000000000000600082015250565b6000610e22601a83610bf2565b9150610e2d82610dec565b602082019050919050565b60006020820190508181036000830152610e5181610e15565b9050919050565b600081905092915050565b6000610e6e82610be7565b610e788185610e58565b9350610e88818560208601610c03565b80840191505092915050565b6000610ea08284610e63565b915081905092915050565b7f4e6f7420612076616c6964206f7074696f6e0000000000000000000000000000600082015250565b6000610ee1601283610bf2565b9150610eec82610eab565b602082019050919050565b60006020820190508181036000830152610f1081610ed4565b9050919050565b7f4e487b7100000000000000000000000000000000000000000000000000000000600052602260045260246000fd5b60006002820490506001821680610f5e57607f821691505b602082108103610f7157610f70610f17565b5b50919050565b7f416c726561647920766f74656400000000000000000000000000000000000000600082015250565b6000610fad600d83610bf2565b9150610fb882610f77565b602082019050919050565b60006020820190508181036000830152610fdc81610fa0565b9050919050565b7f54686520636f6e74726163742069732070617573656400000000000000000000600082015250565b6000611019601683610bf2565b915061102482610fe3565b602082019050919050565b600060208201905081810360008301526110488161100c565b9050919050565b60008190508160005260206000209050919050565b6000815461107181610f46565b61107b8186610bf2565b9450600182166000811461109657600181146110ac576110df565b60ff1983168652811515602002860193506110df565b6110b58561104f565b60005b838110156110d7578154818901526001820191506020810190506110b8565b808801955050505b50505092915050565b600060208201905081810360008301526111028184611064565b905092915050565b7f54686520706f6c6c2068617320656e6465640000000000000000000000000000600082015250565b6000611140601283610bf2565b915061114b8261110a565b602082019050919050565b6000602082019050818103600083015261116f81611133565b9050919050565b7f4e487b7100000000000000000000000000000000000000000000000000000000600052601160045260246000fd5b60006111b082610bb3565b91507fffffffffffffffffffffffffffffffffffffffffffffffffffffffffffffffff82036111e2576111e1611176565b5b600182019050919050565b600081546111fa81610f46565b6112048186610e58565b9450600182166000811461121f576001811461123457611267565b60ff1983168652811515820286019350611267565b61123d8561104f565b60005b8381101561125f57815481890152600182019150602081019050611240565b838801955050505b50505092915050565b600061127c82846111ed565b915081905092915050565b60006020601f8301049050919050565b600082821b905092915050565b6000600883026112d47fffffffffffffffffffffffffffffffffffffffffffffffffffffffffffffffff82611297565b6112de8683611297565b95508019841693508086168417925050509392505050565b6000819050919050565b600061131b61131661131184610bb3565b6112f6565b610bb3565b9050919050565b6000819050919050565b61133583611300565b61134961134182611322565b8484546112a4565b825550505050565b600090565b61135e611351565b61136981848461132c565b505050565b5b8181101561138d57611382600082611356565b60018101905061136f565b5050565b601f8211156113d2576113a38161104f565b6113ac84611287565b810160208510156113bb578190505b6113cf6113c785611287565b83018261136e565b50505b505050565b600082821c905092915050565b60006113f5600019846008026113d7565b1980831691505092915050565b600061140e83836113e4565b9150826002028217905092915050565b61142782610be7565b67ffffffffffffffff8111156114405761143f610a3f565b5b61144a8254610f46565b611455828285611391565b600060209050601f8311600181146114885760008415611476578287015190505b6114808582611402565b8655506114e8565b601f1984166114968661104f565b60005b828110156114be57848901518255600182019150602085019450602081019050611499565b868310156114db57848901516114d7601f8916826113e4565b8355505b6001600288020188555050505b505050505050565b600073ffffffffffffffffffffffffffffffffffffffff82169050919050565b600061151b826114f0565b9050919050565b61152b81611510565b82525050565b60006040820190506115466000830185611522565b81810360208301526115588184610c2d565b9050939250505056fea2646970667358221220fb78b5fbea5381da27abe633f3c83aebe932c3023bffa7d3bfbfc3028eb12b2264736f6c63430008130033a26469706673582212202daa793f1ce38c917ac4bb2a1da5bc5775e22dc8dfbaae8f6e693ba4e91d6dad64736f6c63430008130033",
  "linkReferences": {},
  "deployedLinkReferences": {}
}