{
  "_format": "hh-sol-artifact-1",
  "contractName": "Poll",
  "sourceName": "contracts/Voting.sol",
  "abi": [
    {
      "inputs": [
        {
          "internalType": "string",
          "name": "_question",
          "type": "string"
        },
        {
          "internalType": "string[]",
          "name": "_options",
          "type": "string[]"
        },
        {
          "internalType": "uint256",
          "name": "_timelock",
          "type": "uint256"
        },
        {
          "internalType": "address[]",
          "name": "_managers",
          "type": "address[]"
        }
      ],
      "stateMutability": "nonpayable",
      "type": "constructor"
    },
    {
      "anonymous": false,
      "inputs": [
        {
          "indexed": false,
          "internalType": "string",
          "name": "winner",
          "type": "string"
        }
      ],
      "name": "PollEnded",
      "type": "event"
    },
    {
      "anonymous": false,
      "inputs": [],
      "name": "PollPaused",
      "type": "event"
    },
    {
      "anonymous": false,
      "inputs": [],
      "name": "PollUnpaused",
      "type": "event"
    },
    {
      "anonymous": false,
      "inputs": [
        {
          "indexed": false,
          "internalType": "address",
          "name": "voter",
          "type": "address"
        },
        {
          "indexed": false,
          "internalType": "string",
          "name": "option",
          "type": "string"
        }
      ],
      "name": "VoteCast",
      "type": "event"
    },
    {
      "inputs": [],
      "name": "changePauseState",
      "outputs": [],
      "stateMutability": "nonpayable",
      "type": "function"
    },
    {
      "inputs": [],
      "name": "getAllInfo",
      "outputs": [
        {
          "internalType": "string",
          "name": "",
          "type": "string"
        },
        {
          "internalType": "string[]",
          "name": "",
          "type": "string[]"
        },
        {
          "internalType": "uint256",
          "name": "",
          "type": "uint256"
        },
        {
          "internalType": "uint256",
          "name": "",
          "type": "uint256"
        },
        {
          "internalType": "string",
          "name": "",
          "type": "string"
        },
        {
          "internalType": "uint256",
          "name": "",
          "type": "uint256"
        }
      ],
      "stateMutability": "view",
      "type": "function"
    },
    {
      "inputs": [],
      "name": "getOptions",
      "outputs": [
        {
          "internalType": "string[]",
          "name": "",
          "type": "string[]"
        }
      ],
      "stateMutability": "view",
      "type": "function"
    },
    {
      "inputs": [],
      "name": "getQuestion",
      "outputs": [
        {
          "internalType": "string",
          "name": "",
          "type": "string"
        }
      ],
      "stateMutability": "view",
      "type": "function"
    },
    {
      "inputs": [],
      "name": "getTotalOptions",
      "outputs": [
        {
          "internalType": "uint256",
          "name": "",
          "type": "uint256"
        }
      ],
      "stateMutability": "view",
      "type": "function"
    },
    {
      "inputs": [],
      "name": "getTotalVotes",
      "outputs": [
        {
          "internalType": "uint256",
          "name": "",
          "type": "uint256"
        }
      ],
      "stateMutability": "view",
      "type": "function"
    },
    {
      "inputs": [
        {
          "internalType": "string",
          "name": "_option",
          "type": "string"
        }
      ],
      "name": "getVotes",
      "outputs": [
        {
          "internalType": "uint256",
          "name": "",
          "type": "uint256"
        }
      ],
      "stateMutability": "view",
      "type": "function"
    },
    {
      "inputs": [],
      "name": "getWinner",
      "outputs": [
        {
          "internalType": "string",
          "name": "",
          "type": "string"
        }
      ],
      "stateMutability": "view",
      "type": "function"
    },
    {
      "inputs": [],
      "name": "prettyGetVotes",
      "outputs": [
        {
          "internalType": "string",
          "name": "",
          "type": "string"
        }
      ],
      "stateMutability": "view",
      "type": "function"
    },
    {
      "inputs": [
        {
          "internalType": "string",
          "name": "_option",
          "type": "string"
        }
      ],
      "name": "vote",
      "outputs": [
        {
          "internalType": "bool",
          "name": "",
          "type": "bool"
        }
      ],
      "stateMutability": "nonpayable",
      "type": "function"
    }
  ],
  "bytecode": "0x608060405260008060146101000a81548160ff0219169083151502179055503480156200002b57600080fd5b506040516200309738038062003097833981810160405281019062000051919062000790565b60208351111562000099576040517f08c379a00000000000000000000000000000000000000000000000000000000081526004016200009090620008e6565b60405180910390fd5b600283511015620000e1576040517f08c379a0000000000000000000000000000000000000000000000000000000008152600401620000d8906200097e565b60405180910390fd5b80600b9080519060200190620000f99291906200020f565b50336000806101000a81548173ffffffffffffffffffffffffffffffffffffffff021916908373ffffffffffffffffffffffffffffffffffffffff1602179055508260029080519060200190620001529291906200029e565b50836001908162000164919062000be1565b5060008214620001835781426200017c919062000cf7565b6006819055505b825160048190555060005b835181101562000204576001600a858381518110620001b257620001b162000d32565b5b6020026020010151604051620001c9919062000da3565b908152602001604051809103902060006101000a81548160ff0219169083151502179055508080620001fb9062000dbc565b9150506200018e565b505050505062000e09565b8280548282559060005260206000209081019282156200028b579160200282015b828111156200028a5782518260006101000a81548173ffffffffffffffffffffffffffffffffffffffff021916908373ffffffffffffffffffffffffffffffffffffffff1602179055509160200191906001019062000230565b5b5090506200029a9190620002fe565b5090565b828054828255906000526020600020908101928215620002eb579160200282015b82811115620002ea578251829081620002d9919062000be1565b5091602001919060010190620002bf565b5b509050620002fa91906200031d565b5090565b5b8082111562000319576000816000905550600101620002ff565b5090565b5b8082111562000341576000818162000337919062000345565b506001016200031e565b5090565b5080546200035390620009da565b6000825580601f1062000367575062000388565b601f016020900490600052602060002090810190620003879190620002fe565b5b50565b6000604051905090565b600080fd5b600080fd5b600080fd5b600080fd5b6000601f19601f8301169050919050565b7f4e487b7100000000000000000000000000000000000000000000000000000000600052604160045260246000fd5b620003f482620003a9565b810181811067ffffffffffffffff82111715620004165762000415620003ba565b5b80604052505050565b60006200042b6200038b565b9050620004398282620003e9565b919050565b600067ffffffffffffffff8211156200045c576200045b620003ba565b5b6200046782620003a9565b9050602081019050919050565b60005b838110156200049457808201518184015260208101905062000477565b60008484015250505050565b6000620004b7620004b1846200043e565b6200041f565b905082815260208101848484011115620004d657620004d5620003a4565b5b620004e384828562000474565b509392505050565b600082601f8301126200050357620005026200039f565b5b815162000515848260208601620004a0565b91505092915050565b600067ffffffffffffffff8211156200053c576200053b620003ba565b5b602082029050602081019050919050565b600080fd5b60006200056962000563846200051e565b6200041f565b905080838252602082019050602084028301858111156200058f576200058e6200054d565b5b835b81811015620005dd57805167ffffffffffffffff811115620005b857620005b76200039f565b5b808601620005c78982620004eb565b8552602085019450505060208101905062000591565b5050509392505050565b600082601f830112620005ff57620005fe6200039f565b5b81516200061184826020860162000552565b91505092915050565b6000819050919050565b6200062f816200061a565b81146200063b57600080fd5b50565b6000815190506200064f8162000624565b92915050565b600067ffffffffffffffff821115620006735762000672620003ba565b5b602082029050602081019050919050565b600073ffffffffffffffffffffffffffffffffffffffff82169050919050565b6000620006b18262000684565b9050919050565b620006c381620006a4565b8114620006cf57600080fd5b50565b600081519050620006e381620006b8565b92915050565b600062000700620006fa8462000655565b6200041f565b905080838252602082019050602084028301858111156200072657620007256200054d565b5b835b818110156200075357806200073e8882620006d2565b84526020840193505060208101905062000728565b5050509392505050565b600082601f8301126200077557620007746200039f565b5b815162000787848260208601620006e9565b91505092915050565b60008060008060808587031215620007ad57620007ac62000395565b5b600085015167ffffffffffffffff811115620007ce57620007cd6200039a565b5b620007dc87828801620004eb565b945050602085015167ffffffffffffffff8111156200080057620007ff6200039a565b5b6200080e87828801620005e7565b935050604062000821878288016200063e565b925050606085015167ffffffffffffffff8111156200084557620008446200039a565b5b62000853878288016200075d565b91505092959194509250565b600082825260208201905092915050565b7f4120706f6c6c2063616e206e6f742068617665206d6f7265207468616e20333260008201527f206f7074696f6e73000000000000000000000000000000000000000000000000602082015250565b6000620008ce6028836200085f565b9150620008db8262000870565b604082019050919050565b600060208201905081810360008301526200090181620008bf565b9050919050565b7f4120706f6c6c206d7573742068617665206174206c656173742032206f70746960008201527f6f6e7320746f2062652076616c69640000000000000000000000000000000000602082015250565b600062000966602f836200085f565b9150620009738262000908565b604082019050919050565b60006020820190508181036000830152620009998162000957565b9050919050565b600081519050919050565b7f4e487b7100000000000000000000000000000000000000000000000000000000600052602260045260246000fd5b60006002820490506001821680620009f357607f821691505b60208210810362000a095762000a08620009ab565b5b50919050565b60008190508160005260206000209050919050565b60006020601f8301049050919050565b600082821b905092915050565b60006008830262000a737fffffffffffffffffffffffffffffffffffffffffffffffffffffffffffffffff8262000a34565b62000a7f868362000a34565b95508019841693508086168417925050509392505050565b6000819050919050565b600062000ac262000abc62000ab6846200061a565b62000a97565b6200061a565b9050919050565b6000819050919050565b62000ade8362000aa1565b62000af662000aed8262000ac9565b84845462000a41565b825550505050565b600090565b62000b0d62000afe565b62000b1a81848462000ad3565b505050565b5b8181101562000b425762000b3660008262000b03565b60018101905062000b20565b5050565b601f82111562000b915762000b5b8162000a0f565b62000b668462000a24565b8101602085101562000b76578190505b62000b8e62000b858562000a24565b83018262000b1f565b50505b505050565b600082821c905092915050565b600062000bb66000198460080262000b96565b1980831691505092915050565b600062000bd1838362000ba3565b9150826002028217905092915050565b62000bec82620009a0565b67ffffffffffffffff81111562000c085762000c07620003ba565b5b62000c148254620009da565b62000c2182828562000b46565b600060209050601f83116001811462000c59576000841562000c44578287015190505b62000c50858262000bc3565b86555062000cc0565b601f19841662000c698662000a0f565b60005b8281101562000c935784890151825560018201915060208501945060208101905062000c6c565b8683101562000cb3578489015162000caf601f89168262000ba3565b8355505b6001600288020188555050505b505050505050565b7f4e487b7100000000000000000000000000000000000000000000000000000000600052601160045260246000fd5b600062000d04826200061a565b915062000d11836200061a565b925082820190508082111562000d2c5762000d2b62000cc8565b5b92915050565b7f4e487b7100000000000000000000000000000000000000000000000000000000600052603260045260246000fd5b600081905092915050565b600062000d7982620009a0565b62000d85818562000d61565b935062000d9781856020860162000474565b80840191505092915050565b600062000db1828462000d6c565b915081905092915050565b600062000dc9826200061a565b91507fffffffffffffffffffffffffffffffffffffffffffffffffffffffffffffffff820362000dfe5762000dfd62000cc8565b5b600182019050919050565b61227e8062000e196000396000f3fe608060405234801561001057600080fd5b506004361061009e5760003560e01c8063b2db350311610066578063b2db35031461013c578063bc57d1a71461015a578063cc2ee19614610178578063eff38f9214610196578063fc36e15b146101b45761009e565b806346e79ffc146100a3578063805265e5146100ad5780638e7ea5b2146100dd5780639a0e7d66146100fb578063b18e15bd14610119575b600080fd5b6100ab6101e4565b005b6100c760048036038101906100c29190611696565b610311565b6040516100d491906116f8565b60405180910390f35b6100e56103a4565b6040516100f29190611792565b60405180910390f35b610103610436565b60405161011091906116f8565b60405180910390f35b610121610440565b604051610133969594939291906118c0565b60405180910390f35b610144610658565b60405161015191906116f8565b60405180910390f35b610162610662565b60405161016f9190611792565b60405180910390f35b61018061070a565b60405161018d9190611936565b60405180910390f35b61019e6107e3565b6040516101ab9190611792565b60405180910390f35b6101ce60048036038101906101c99190611696565b610875565b6040516101db9190611973565b60405180910390f35b60008054906101000a900473ffffffffffffffffffffffffffffffffffffffff1673ffffffffffffffffffffffffffffffffffffffff163373ffffffffffffffffffffffffffffffffffffffff1614610272576040517f08c379a0000000000000000000000000000000000000000000000000000000008152600401610269906119da565b60405180910390fd5b600060149054906101000a900460ff16156102b8577f3c24483b1a54daf2fdb8b301d327e5f87a37721eba6c3e37084a1ffc9ad83c3e60405160405180910390a16102e5565b7f8d1879e4a6c38fc7a185f585f2edec4cc9560a351d67371bc56a912603a0219360405160405180910390a15b600060149054906101000a900460ff1615600060146101000a81548160ff021916908315150217905550565b6000600a826040516103239190611a36565b908152602001604051809103902060009054906101000a900460ff1661037e576040517f08c379a000000000000000000000000000000000000000000000000000000000815260040161037590611a99565b60405180910390fd5b60088260405161038e9190611a36565b9081526020016040518091039020549050919050565b6060600580546103b390611ae8565b80601f01602080910402602001604051908101604052809291908181526020018280546103df90611ae8565b801561042c5780601f106104015761010080835404028352916020019161042c565b820191906000526020600020905b81548152906001019060200180831161040f57829003601f168201915b5050505050905090565b6000600354905090565b6060806000806060600060016002600354600454600560065485805461046590611ae8565b80601f016020809104026020016040519081016040528092919081815260200182805461049190611ae8565b80156104de5780601f106104b3576101008083540402835291602001916104de565b820191906000526020600020905b8154815290600101906020018083116104c157829003601f168201915b5050505050955084805480602002602001604051908101604052809291908181526020016000905b828210156105b257838290600052602060002001805461052590611ae8565b80601f016020809104026020016040519081016040528092919081815260200182805461055190611ae8565b801561059e5780601f106105735761010080835404028352916020019161059e565b820191906000526020600020905b81548152906001019060200180831161058157829003601f168201915b505050505081526020019060010190610506565b5050505094508180546105c490611ae8565b80601f01602080910402602001604051908101604052809291908181526020018280546105f090611ae8565b801561063d5780601f106106125761010080835404028352916020019161063d565b820191906000526020600020905b81548152906001019060200180831161062057829003601f168201915b50505050509150955095509550955095509550909192939495565b6000600454905090565b6060600060405180602001604052806000815250905060005b60028054905081101561070257816106cd6008600284815481106106a2576106a1611b19565b5b906000526020600020016040516106b99190611be0565b90815260200160405180910390205461131b565b6040516020016106de929190611c43565b604051602081830303815290604052915080806106fa90611ca1565b91505061067b565b508091505090565b60606002805480602002602001604051908101604052809291908181526020016000905b828210156107da57838290600052602060002001805461074d90611ae8565b80601f016020809104026020016040519081016040528092919081815260200182805461077990611ae8565b80156107c65780601f1061079b576101008083540402835291602001916107c6565b820191906000526020600020905b8154815290600101906020018083116107a957829003601f168201915b50505050508152602001906001019061072e565b50505050905090565b6060600180546107f290611ae8565b80601f016020809104026020016040519081016040528092919081815260200182805461081e90611ae8565b801561086b5780601f106108405761010080835404028352916020019161086b565b820191906000526020600020905b81548152906001019060200180831161084e57829003601f168201915b5050505050905090565b6000600960003373ffffffffffffffffffffffffffffffffffffffff1673ffffffffffffffffffffffffffffffffffffffff16815260200190815260200160002060009054906101000a900460ff1615610904576040517f08c379a00000000000000000000000000000000000000000000000000000000081526004016108fb90611d35565b60405180910390fd5b600060149054906101000a900460ff1615610954576040517f08c379a000000000000000000000000000000000000000000000000000000000815260040161094b90611da1565b60405180910390fd5b600060065414610e7a577f35b19081975ea7023b694708fbe0226138af41ff25a1b73420cc13026bd477be600560405161098e9190611e45565b60405180910390a160065442106109da576040517f08c379a00000000000000000000000000000000000000000000000000000000081526004016109d190611eb3565b60405180910390fd5b6000600b8054905014610c9e576000805b600b80549050811015610a8157600b8181548110610a0c57610a0b611b19565b5b9060005260206000200160009054906101000a900473ffffffffffffffffffffffffffffffffffffffff1673ffffffffffffffffffffffffffffffffffffffff163373ffffffffffffffffffffffffffffffffffffffff1603610a6e57600191505b8080610a7990611ca1565b9150506109eb565b5080610ac2576040517f08c379a0000000000000000000000000000000000000000000000000000000008152600401610ab990611f1f565b60405180910390fd5b600a83604051610ad29190611a36565b908152602001604051809103902060009054906101000a900460ff16610b2d576040517f08c379a0000000000000000000000000000000000000000000000000000000008152600401610b2490611a99565b60405180910390fd5b600883604051610b3d9190611a36565b90815260200160405180910390206000815480929190610b5c90611ca1565b9190505550600760009054906101000a900460ff161580610bba575060086005604051610b899190611be0565b908152602001604051809103902054600884604051610ba89190611a36565b90815260200160405180910390205410155b15610beb578260059081610bce91906120d6565b506001600760006101000a81548160ff0219169083151502179055505b60036000815480929190610bfe90611ca1565b91905055506001600960003373ffffffffffffffffffffffffffffffffffffffff1673ffffffffffffffffffffffffffffffffffffffff16815260200190815260200160002060006101000a81548160ff0219169083151502179055507f866dc605853954ffa419910eb05d67f430efec2e7db7ce135bf55565667a4ab43384604051610c8c9291906121e9565b60405180910390a16001915050610e75565b600a82604051610cae9190611a36565b908152602001604051809103902060009054906101000a900460ff16610d09576040517f08c379a0000000000000000000000000000000000000000000000000000000008152600401610d0090611a99565b60405180910390fd5b600882604051610d199190611a36565b90815260200160405180910390206000815480929190610d3890611ca1565b9190505550600760009054906101000a900460ff161580610d96575060086005604051610d659190611be0565b908152602001604051809103902054600883604051610d849190611a36565b90815260200160405180910390205410155b15610dc7578160059081610daa91906120d6565b506001600760006101000a81548160ff0219169083151502179055505b60036000815480929190610dda90611ca1565b91905055506001600960003373ffffffffffffffffffffffffffffffffffffffff1673ffffffffffffffffffffffffffffffffffffffff16815260200190815260200160002060006101000a81548160ff0219169083151502179055507f866dc605853954ffa419910eb05d67f430efec2e7db7ce135bf55565667a4ab43383604051610e689291906121e9565b60405180910390a1600190505b611316565b6000600b805490501461113e576000805b600b80549050811015610f2157600b8181548110610eac57610eab611b19565b5b9060005260206000200160009054906101000a900473ffffffffffffffffffffffffffffffffffffffff1673ffffffffffffffffffffffffffffffffffffffff163373ffffffffffffffffffffffffffffffffffffffff1603610f0e57600191505b8080610f1990611ca1565b915050610e8b565b5080610f62576040517f08c379a0000000000000000000000000000000000000000000000000000000008152600401610f5990611f1f565b60405180910390fd5b600a83604051610f729190611a36565b908152602001604051809103902060009054906101000a900460ff16610fcd576040517f08c379a0000000000000000000000000000000000000000000000000000000008152600401610fc490611a99565b60405180910390fd5b600883604051610fdd9190611a36565b90815260200160405180910390206000815480929190610ffc90611ca1565b9190505550600760009054906101000a900460ff16158061105a5750600860056040516110299190611be0565b9081526020016040518091039020546008846040516110489190611a36565b90815260200160405180910390205410155b1561108b57826005908161106e91906120d6565b506001600760006101000a81548160ff0219169083151502179055505b6003600081548092919061109e90611ca1565b91905055506001600960003373ffffffffffffffffffffffffffffffffffffffff1673ffffffffffffffffffffffffffffffffffffffff16815260200190815260200160002060006101000a81548160ff0219169083151502179055507f866dc605853954ffa419910eb05d67f430efec2e7db7ce135bf55565667a4ab4338460405161112c9291906121e9565b60405180910390a16001915050611315565b600a8260405161114e9190611a36565b908152602001604051809103902060009054906101000a900460ff166111a9576040517f08c379a00000000000000000000000000000000000000000000000000000000081526004016111a090611a99565b60405180910390fd5b6008826040516111b99190611a36565b908152602001604051809103902060008154809291906111d890611ca1565b9190505550600760009054906101000a900460ff1615806112365750600860056040516112059190611be0565b9081526020016040518091039020546008836040516112249190611a36565b90815260200160405180910390205410155b1561126757816005908161124a91906120d6565b506001600760006101000a81548160ff0219169083151502179055505b6003600081548092919061127a90611ca1565b91905055506001600960003373ffffffffffffffffffffffffffffffffffffffff1673ffffffffffffffffffffffffffffffffffffffff16815260200190815260200160002060006101000a81548160ff0219169083151502179055507f866dc605853954ffa419910eb05d67f430efec2e7db7ce135bf55565667a4ab433836040516113089291906121e9565b60405180910390a1600190505b5b919050565b60606000600161132a846113e9565b01905060008167ffffffffffffffff8111156113495761134861156b565b5b6040519080825280601f01601f19166020018201604052801561137b5781602001600182028036833780820191505090505b509050600082602001820190505b6001156113de578080600190039150507f3031323334353637383961626364656600000000000000000000000000000000600a86061a8153600a85816113d2576113d1612219565b5b04945060008503611389575b819350505050919050565b600080600090507a184f03e93ff9f4daa797ed6e38ed64bf6a1f0100000000000000008310611447577a184f03e93ff9f4daa797ed6e38ed64bf6a1f010000000000000000838161143d5761143c612219565b5b0492506040810190505b6d04ee2d6d415b85acef81000000008310611484576d04ee2d6d415b85acef8100000000838161147a57611479612219565b5b0492506020810190505b662386f26fc1000083106114b357662386f26fc1000083816114a9576114a8612219565b5b0492506010810190505b6305f5e10083106114dc576305f5e10083816114d2576114d1612219565b5b0492506008810190505b61271083106115015761271083816114f7576114f6612219565b5b0492506004810190505b60648310611524576064838161151a57611519612219565b5b0492506002810190505b600a8310611533576001810190505b80915050919050565b6000604051905090565b600080fd5b600080fd5b600080fd5b600080fd5b6000601f19601f8301169050919050565b7f4e487b7100000000000000000000000000000000000000000000000000000000600052604160045260246000fd5b6115a38261155a565b810181811067ffffffffffffffff821117156115c2576115c161156b565b5b80604052505050565b60006115d561153c565b90506115e1828261159a565b919050565b600067ffffffffffffffff8211156116015761160061156b565b5b61160a8261155a565b9050602081019050919050565b82818337600083830152505050565b6000611639611634846115e6565b6115cb565b90508281526020810184848401111561165557611654611555565b5b611660848285611617565b509392505050565b600082601f83011261167d5761167c611550565b5b813561168d848260208601611626565b91505092915050565b6000602082840312156116ac576116ab611546565b5b600082013567ffffffffffffffff8111156116ca576116c961154b565b5b6116d684828501611668565b91505092915050565b6000819050919050565b6116f2816116df565b82525050565b600060208201905061170d60008301846116e9565b92915050565b600081519050919050565b600082825260208201905092915050565b60005b8381101561174d578082015181840152602081019050611732565b60008484015250505050565b600061176482611713565b61176e818561171e565b935061177e81856020860161172f565b6117878161155a565b840191505092915050565b600060208201905081810360008301526117ac8184611759565b905092915050565b600081519050919050565b600082825260208201905092915050565b6000819050602082019050919050565b600082825260208201905092915050565b60006117fc82611713565b61180681856117e0565b935061181681856020860161172f565b61181f8161155a565b840191505092915050565b600061183683836117f1565b905092915050565b6000602082019050919050565b6000611856826117b4565b61186081856117bf565b935083602082028501611872856117d0565b8060005b858110156118ae578484038952815161188f858261182a565b945061189a8361183e565b925060208a01995050600181019050611876565b50829750879550505050505092915050565b600060c08201905081810360008301526118da8189611759565b905081810360208301526118ee818861184b565b90506118fd60408301876116e9565b61190a60608301866116e9565b818103608083015261191c8185611759565b905061192b60a08301846116e9565b979650505050505050565b60006020820190508181036000830152611950818461184b565b905092915050565b60008115159050919050565b61196d81611958565b82525050565b60006020820190506119886000830184611964565b92915050565b7f4f6e6c7920746865206f776e65722063616e20646f2074686973000000000000600082015250565b60006119c4601a8361171e565b91506119cf8261198e565b602082019050919050565b600060208201905081810360008301526119f3816119b7565b9050919050565b600081905092915050565b6000611a1082611713565b611a1a81856119fa565b9350611a2a81856020860161172f565b80840191505092915050565b6000611a428284611a05565b915081905092915050565b7f4e6f7420612076616c6964206f7074696f6e0000000000000000000000000000600082015250565b6000611a8360128361171e565b9150611a8e82611a4d565b602082019050919050565b60006020820190508181036000830152611ab281611a76565b9050919050565b7f4e487b7100000000000000000000000000000000000000000000000000000000600052602260045260246000fd5b60006002820490506001821680611b0057607f821691505b602082108103611b1357611b12611ab9565b5b50919050565b7f4e487b7100000000000000000000000000000000000000000000000000000000600052603260045260246000fd5b60008190508160005260206000209050919050565b60008154611b6a81611ae8565b611b7481866119fa565b94506001821660008114611b8f5760018114611ba457611bd7565b60ff1983168652811515820286019350611bd7565b611bad85611b48565b60005b83811015611bcf57815481890152600182019150602081019050611bb0565b838801955050505b50505092915050565b6000611bec8284611b5d565b915081905092915050565b7f2c00000000000000000000000000000000000000000000000000000000000000600082015250565b6000611c2d6001836119fa565b9150611c3882611bf7565b600182019050919050565b6000611c4f8285611a05565b9150611c5b8284611a05565b9150611c6682611c20565b91508190509392505050565b7f4e487b7100000000000000000000000000000000000000000000000000000000600052601160045260246000fd5b6000611cac826116df565b91507fffffffffffffffffffffffffffffffffffffffffffffffffffffffffffffffff8203611cde57611cdd611c72565b5b600182019050919050565b7f416c726561647920766f74656400000000000000000000000000000000000000600082015250565b6000611d1f600d8361171e565b9150611d2a82611ce9565b602082019050919050565b60006020820190508181036000830152611d4e81611d12565b9050919050565b7f54686520636f6e74726163742069732070617573656400000000000000000000600082015250565b6000611d8b60168361171e565b9150611d9682611d55565b602082019050919050565b60006020820190508181036000830152611dba81611d7e565b9050919050565b60008154611dce81611ae8565b611dd8818661171e565b94506001821660008114611df35760018114611e0957611e3c565b60ff198316865281151560200286019350611e3c565b611e1285611b48565b60005b83811015611e3457815481890152600182019150602081019050611e15565b808801955050505b50505092915050565b60006020820190508181036000830152611e5f8184611dc1565b905092915050565b7f54686520706f6c6c2068617320656e6465640000000000000000000000000000600082015250565b6000611e9d60128361171e565b9150611ea882611e67565b602082019050919050565b60006020820190508181036000830152611ecc81611e90565b9050919050565b7f4f6e6c79206d616e61676572732063616e20646f207468697300000000000000600082015250565b6000611f0960198361171e565b9150611f1482611ed3565b602082019050919050565b60006020820190508181036000830152611f3881611efc565b9050919050565b60006020601f8301049050919050565b600082821b905092915050565b600060088302611f8c7fffffffffffffffffffffffffffffffffffffffffffffffffffffffffffffffff82611f4f565b611f968683611f4f565b95508019841693508086168417925050509392505050565b6000819050919050565b6000611fd3611fce611fc9846116df565b611fae565b6116df565b9050919050565b6000819050919050565b611fed83611fb8565b612001611ff982611fda565b848454611f5c565b825550505050565b600090565b612016612009565b612021818484611fe4565b505050565b5b818110156120455761203a60008261200e565b600181019050612027565b5050565b601f82111561208a5761205b81611b48565b61206484611f3f565b81016020851015612073578190505b61208761207f85611f3f565b830182612026565b50505b505050565b600082821c905092915050565b60006120ad6000198460080261208f565b1980831691505092915050565b60006120c6838361209c565b9150826002028217905092915050565b6120df82611713565b67ffffffffffffffff8111156120f8576120f761156b565b5b6121028254611ae8565b61210d828285612049565b600060209050601f831160018114612140576000841561212e578287015190505b61213885826120ba565b8655506121a0565b601f19841661214e86611b48565b60005b8281101561217657848901518255600182019150602085019450602081019050612151565b86831015612193578489015161218f601f89168261209c565b8355505b6001600288020188555050505b505050505050565b600073ffffffffffffffffffffffffffffffffffffffff82169050919050565b60006121d3826121a8565b9050919050565b6121e3816121c8565b82525050565b60006040820190506121fe60008301856121da565b81810360208301526122108184611759565b90509392505050565b7f4e487b7100000000000000000000000000000000000000000000000000000000600052601260045260246000fdfea26469706673582212201a9d0a59434f452c8156763e1d3c8b21a58b6b7a9e338c3a069583b31fce247564736f6c63430008130033",
  "linkReferences": {},
  "deployedLinkReferences": {}
}